{
  "contractName": "Cardbank",
  "abi": [
    {
      "anonymous": false,
      "inputs": [
        {
          "indexed": true,
          "internalType": "address",
          "name": "previousOwner",
          "type": "address"
        },
        {
          "indexed": true,
          "internalType": "address",
          "name": "newOwner",
          "type": "address"
        }
      ],
      "name": "OwnershipTransferred",
      "type": "event"
    },
    {
      "anonymous": false,
      "inputs": [
        {
          "indexed": false,
          "internalType": "address",
          "name": "_from",
          "type": "address"
        },
        {
          "indexed": false,
          "internalType": "address",
          "name": "_to",
          "type": "address"
        },
        {
          "indexed": false,
          "internalType": "uint256",
          "name": "_tokenId",
          "type": "uint256"
        }
      ],
      "name": "Transfer",
      "type": "event"
    },
    {
      "constant": true,
      "inputs": [
        {
          "internalType": "uint256",
          "name": "",
          "type": "uint256"
        }
      ],
      "name": "cards",
      "outputs": [
        {
          "internalType": "uint256",
          "name": "tokenid",
          "type": "uint256"
        },
        {
          "internalType": "uint256",
          "name": "cardid",
          "type": "uint256"
        }
      ],
      "payable": false,
      "stateMutability": "view",
      "type": "function"
    },
    {
      "constant": true,
      "inputs": [],
      "name": "isOwner",
      "outputs": [
        {
          "internalType": "bool",
          "name": "",
          "type": "bool"
        }
      ],
      "payable": false,
      "stateMutability": "view",
      "type": "function"
    },
    {
      "constant": true,
      "inputs": [],
      "name": "owner",
      "outputs": [
        {
          "internalType": "address",
          "name": "",
          "type": "address"
        }
      ],
      "payable": false,
      "stateMutability": "view",
      "type": "function"
    },
    {
      "constant": false,
      "inputs": [],
      "name": "renounceOwnership",
      "outputs": [],
      "payable": false,
      "stateMutability": "nonpayable",
      "type": "function"
    },
    {
      "constant": false,
      "inputs": [
        {
          "internalType": "address",
          "name": "newOwner",
          "type": "address"
        }
      ],
      "name": "transferOwnership",
      "outputs": [],
      "payable": false,
      "stateMutability": "nonpayable",
      "type": "function"
    },
    {
      "constant": false,
      "inputs": [
        {
          "internalType": "address",
          "name": "_sender",
          "type": "address"
        },
        {
          "internalType": "uint256",
          "name": "_cardId",
          "type": "uint256"
        },
        {
          "internalType": "uint256",
          "name": "_etherValue",
          "type": "uint256"
        }
      ],
      "name": "_initiateSellingOffer",
      "outputs": [],
      "payable": false,
      "stateMutability": "nonpayable",
      "type": "function"
    },
    {
      "constant": true,
      "inputs": [],
      "name": "sellingOffers",
      "outputs": [
        {
          "internalType": "uint256[]",
          "name": "",
          "type": "uint256[]"
        },
        {
          "internalType": "uint256[]",
          "name": "",
          "type": "uint256[]"
        },
        {
          "internalType": "uint256[]",
          "name": "",
          "type": "uint256[]"
        }
      ],
      "payable": false,
      "stateMutability": "view",
      "type": "function"
    },
    {
      "constant": false,
      "inputs": [
        {
          "internalType": "uint256",
          "name": "_offerNumber",
          "type": "uint256"
        }
      ],
      "name": "acceptSellingOffer",
      "outputs": [
        {
          "internalType": "bool",
          "name": "",
          "type": "bool"
        }
      ],
      "payable": true,
      "stateMutability": "payable",
      "type": "function"
    },
    {
      "constant": false,
      "inputs": [
        {
          "internalType": "address",
          "name": "_sender",
          "type": "address"
        },
        {
          "internalType": "uint256",
          "name": "_tradeCard",
          "type": "uint256"
        },
        {
          "internalType": "uint256",
          "name": "_forCard",
          "type": "uint256"
        }
      ],
      "name": "_initiateTradingOffer",
      "outputs": [],
      "payable": false,
      "stateMutability": "nonpayable",
      "type": "function"
    },
    {
      "constant": true,
      "inputs": [],
      "name": "TradingOffers",
      "outputs": [
        {
          "internalType": "uint256[]",
          "name": "",
          "type": "uint256[]"
        },
        {
          "internalType": "uint256[]",
          "name": "",
          "type": "uint256[]"
        },
        {
          "internalType": "uint256[]",
          "name": "",
          "type": "uint256[]"
        }
      ],
      "payable": false,
      "stateMutability": "view",
      "type": "function"
    },
    {
      "constant": false,
      "inputs": [
        {
          "internalType": "uint256",
          "name": "_offerNumber",
          "type": "uint256"
        }
      ],
      "name": "acceptTradingOffer",
      "outputs": [],
      "payable": false,
      "stateMutability": "nonpayable",
      "type": "function"
    },
    {
      "constant": false,
      "inputs": [
        {
          "internalType": "uint256",
          "name": "_cardId",
          "type": "uint256"
        },
        {
          "internalType": "address",
          "name": "_to",
          "type": "address"
        }
      ],
      "name": "transferACardToFriend",
      "outputs": [],
      "payable": false,
      "stateMutability": "nonpayable",
      "type": "function"
    },
    {
      "constant": true,
      "inputs": [
        {
          "internalType": "address",
          "name": "_owner",
          "type": "address"
        }
      ],
      "name": "getCardsByOwner",
      "outputs": [
        {
          "internalType": "uint256[]",
          "name": "",
          "type": "uint256[]"
        }
      ],
      "payable": false,
      "stateMutability": "view",
      "type": "function"
    },
    {
      "constant": true,
      "inputs": [],
      "name": "cardsOnAuction",
      "outputs": [
        {
          "internalType": "uint256[]",
          "name": "",
          "type": "uint256[]"
        }
      ],
      "payable": false,
      "stateMutability": "view",
      "type": "function"
    },
    {
      "constant": false,
      "inputs": [
        {
          "internalType": "uint256",
          "name": "_auctionTime",
          "type": "uint256"
        },
        {
          "internalType": "uint8",
          "name": "timeFormat",
          "type": "uint8"
        },
        {
          "internalType": "address",
          "name": "_owner",
          "type": "address"
        },
        {
          "internalType": "uint256",
          "name": "_CardId",
          "type": "uint256"
        },
        {
          "internalType": "uint256",
          "name": "_TokenId",
          "type": "uint256"
        }
      ],
      "name": "createAuctionContract",
      "outputs": [],
      "payable": false,
      "stateMutability": "nonpayable",
      "type": "function"
    },
    {
      "constant": true,
      "inputs": [],
      "name": "giveMeAddresses",
      "outputs": [
        {
          "internalType": "address[]",
          "name": "",
          "type": "address[]"
        }
      ],
      "payable": false,
      "stateMutability": "view",
      "type": "function"
    },
    {
      "constant": false,
      "inputs": [
        {
          "internalType": "address",
          "name": "contractaddress",
          "type": "address"
        },
        {
          "internalType": "address",
          "name": "_from",
          "type": "address"
        },
        {
          "internalType": "address",
          "name": "_to",
          "type": "address"
        },
        {
          "internalType": "uint256",
          "name": "_CardId",
          "type": "uint256"
        }
      ],
      "name": "_transfer",
      "outputs": [],
      "payable": false,
      "stateMutability": "nonpayable",
      "type": "function"
    }
  ],
  "bytecode": "0x6080604052600160075560006008556001600a556000600b55336000806101000a81548173ffffffffffffffffffffffffffffffffffffffff021916908373ffffffffffffffffffffffffffffffffffffffff1602179055506000809054906101000a900473ffffffffffffffffffffffffffffffffffffffff1673ffffffffffffffffffffffffffffffffffffffff16600073ffffffffffffffffffffffffffffffffffffffff167f8be0079c531659141344cd1fd0a4f28419497f9722a3daafe3b4186f6b6457e060405160405180910390a3613d2f806100e36000396000f3fe608060405260043610620001165760003560e01c80638dc1076811620000a3578063b41e0afe116200006d578063b41e0afe146200064f578063c50b522b14620006c0578063eba73c7c1462000740578063f2fde38b14620007ec578063f31281d714620008415762000116565b80638dc10768146200047f5780638f32d59b14620004d95780639ef1ddc9146200050b578063a0d83b9e14620006105762000116565b8063572b805411620000e5578063572b80541462000295578063715018a6146200039a5780637410b6ca14620003b45780638da5cb5b14620004255762000116565b806311d31b2d146200011b578063337ceda9146200018457806347b313dc14620001ed57806355e984ff146200024c575b600080fd5b3480156200012857600080fd5b5062000182600480360360608110156200014157600080fd5b81019080803573ffffffffffffffffffffffffffffffffffffffff1690602001909291908035906020019092919080359060200190929190505050620008e0565b005b3480156200019157600080fd5b50620001eb60048036036060811015620001aa57600080fd5b81019080803573ffffffffffffffffffffffffffffffffffffffff169060200190929190803590602001909291908035906020019092919050505062000a44565b005b348015620001fa57600080fd5b506200024a600480360360408110156200021357600080fd5b8101908080359060200190929190803573ffffffffffffffffffffffffffffffffffffffff16906020019092919050505062000ba8565b005b6200027b600480360360208110156200026457600080fd5b810190808035906020019092919050505062000dbf565b604051808215151515815260200191505060405180910390f35b348015620002a257600080fd5b50620002ad620011bc565b60405180806020018060200180602001848103845287818151815260200191508051906020019060200280838360005b83811015620002fa578082015181840152602081019050620002dd565b50505050905001848103835286818151815260200191508051906020019060200280838360005b838110156200033e57808201518184015260208101905062000321565b50505050905001848103825285818151815260200191508051906020019060200280838360005b838110156200038257808201518184015260208101905062000365565b50505050905001965050505050505060405180910390f35b348015620003a757600080fd5b50620003b262001354565b005b348015620003c157600080fd5b50620003cc62001427565b6040518080602001828103825283818151815260200191508051906020019060200280838360005b8381101562000411578082015181840152602081019050620003f4565b505050509050019250505060405180910390f35b3480156200043257600080fd5b506200043d6200151b565b604051808273ffffffffffffffffffffffffffffffffffffffff1673ffffffffffffffffffffffffffffffffffffffff16815260200191505060405180910390f35b3480156200048c57600080fd5b50620004bc60048036036020811015620004a557600080fd5b810190808035906020019092919050505062001544565b604051808381526020018281526020019250505060405180910390f35b348015620004e657600080fd5b50620004f162001576565b604051808215151515815260200191505060405180910390f35b3480156200051857600080fd5b5062000523620015cd565b60405180806020018060200180602001848103845287818151815260200191508051906020019060200280838360005b838110156200057057808201518184015260208101905062000553565b50505050905001848103835286818151815260200191508051906020019060200280838360005b83811015620005b457808201518184015260208101905062000597565b50505050905001848103825285818151815260200191508051906020019060200280838360005b83811015620005f8578082015181840152602081019050620005db565b50505050905001965050505050505060405180910390f35b3480156200061d57600080fd5b506200064d600480360360208110156200063657600080fd5b810190808035906020019092919050505062001765565b005b3480156200065c57600080fd5b506200066762001a45565b6040518080602001828103825283818151815260200191508051906020019060200280838360005b83811015620006ac5780820151818401526020810190506200068f565b505050509050019250505060405180910390f35b348015620006cd57600080fd5b506200073e600480360360a0811015620006e657600080fd5b8101908080359060200190929190803560ff169060200190929190803573ffffffffffffffffffffffffffffffffffffffff169060200190929190803590602001909291908035906020019092919050505062001b36565b005b3480156200074d57600080fd5b5062000793600480360360208110156200076657600080fd5b81019080803573ffffffffffffffffffffffffffffffffffffffff16906020019092919050505062001d8f565b6040518080602001828103825283818151815260200191508051906020019060200280838360005b83811015620007d8578082015181840152602081019050620007bb565b505050509050019250505060405180910390f35b348015620007f957600080fd5b506200083f600480360360208110156200081257600080fd5b81019080803573ffffffffffffffffffffffffffffffffffffffff16906020019092919050505062001ee0565b005b3480156200084e57600080fd5b50620008de600480360360808110156200086757600080fd5b81019080803573ffffffffffffffffffffffffffffffffffffffff169060200190929190803573ffffffffffffffffffffffffffffffffffffffff169060200190929190803573ffffffffffffffffffffffffffffffffffffffff1690602001909291908035906020019092919050505062001f02565b005b60011515620008f083856200238e565b15151462000966576040517f08c379a00000000000000000000000000000000000000000000000000000000081526004018080602001828103825260178152602001807f596f7520646f6e2774204f776e2074686174206361726400000000000000000081525060200191505060405180910390fd5b6200097062002836565b828160000181815250508181602001818152505083816040019073ffffffffffffffffffffffffffffffffffffffff16908173ffffffffffffffffffffffffffffffffffffffff1681525050806009600060076000815480929190600101919050558152602001908152602001600020600082015181600001556020820151816001015560408201518160020160006101000a81548173ffffffffffffffffffffffffffffffffffffffff021916908373ffffffffffffffffffffffffffffffffffffffff16021790555090505050505050565b6001151562000a5483856200238e565b15151462000aca576040517f08c379a00000000000000000000000000000000000000000000000000000000081526004018080602001828103825260178152602001807f596f7520646f6e2774204f776e2074686174206361726400000000000000000081525060200191505060405180910390fd5b62000ad46200286d565b828160000181815250508181602001818152505083816040019073ffffffffffffffffffffffffffffffffffffffff16908173ffffffffffffffffffffffffffffffffffffffff168152505080600c6000600a6000815480929190600101919050558152602001908152602001600020600082015181600001556020820151816001015560408201518160020160006101000a81548173ffffffffffffffffffffffffffffffffffffffff021916908373ffffffffffffffffffffffffffffffffffffffff16021790555090505050505050565b6001151562000bb883336200238e565b15151462000c2e576040517f08c379a00000000000000000000000000000000000000000000000000000000081526004018080602001828103825260178152602001807f596f7520646f6e2774204f776e2074686174206361726400000000000000000081525060200191505060405180910390fd5b806002600062000c3f85336200245f565b815260200190815260200160002060006101000a81548173ffffffffffffffffffffffffffffffffffffffff021916908373ffffffffffffffffffffffffffffffffffffffff16021790555062000ce06001600360008473ffffffffffffffffffffffffffffffffffffffff1673ffffffffffffffffffffffffffffffffffffffff168152602001908152602001600020546200252890919063ffffffff16565b600360008373ffffffffffffffffffffffffffffffffffffffff1673ffffffffffffffffffffffffffffffffffffffff1681526020019081526020016000208190555062000d786001600360003373ffffffffffffffffffffffffffffffffffffffff1673ffffffffffffffffffffffffffffffffffffffff168152602001908152602001600020546200254590919063ffffffff16565b600360003373ffffffffffffffffffffffffffffffffffffffff1673ffffffffffffffffffffffffffffffffffffffff168152602001908152602001600020819055505050565b600062000dcb6200286d565b600c600084815260200190815260200160002060405180606001604052908160008201548152602001600182015481526020016002820160009054906101000a900473ffffffffffffffffffffffffffffffffffffffff1673ffffffffffffffffffffffffffffffffffffffff1673ffffffffffffffffffffffffffffffffffffffff168152505090503481602001511462000ecf576040517f08c379a00000000000000000000000000000000000000000000000000000000081526004018080602001828103825260108152602001807f4e6f7420456e6f7567682045746865720000000000000000000000000000000081525060200191505060405180910390fd5b6001151562000ee7826000015183604001516200238e565b15151462000f5d576040517f08c379a000000000000000000000000000000000000000000000000000000000815260040180806020018281038252601e8152602001807f54726164657220646f6e2774204f776e20746861742063617264206e6f77000081525060200191505060405180910390fd5b336002600062000f76846000015185604001516200245f565b815260200190815260200160002060006101000a81548173ffffffffffffffffffffffffffffffffffffffff021916908373ffffffffffffffffffffffffffffffffffffffff160217905550620010176001600360003373ffffffffffffffffffffffffffffffffffffffff1673ffffffffffffffffffffffffffffffffffffffff168152602001908152602001600020546200252890919063ffffffff16565b600360003373ffffffffffffffffffffffffffffffffffffffff1673ffffffffffffffffffffffffffffffffffffffff16815260200190815260200160002081905550620010b3600160036000846040015173ffffffffffffffffffffffffffffffffffffffff1673ffffffffffffffffffffffffffffffffffffffff168152602001908152602001600020546200254590919063ffffffff16565b60036000836040015173ffffffffffffffffffffffffffffffffffffffff1673ffffffffffffffffffffffffffffffffffffffff168152602001908152602001600020819055506000816040015190508073ffffffffffffffffffffffffffffffffffffffff166108fc83602001519081150290604051600060405180830381858888f193505050501580156200114e573d6000803e3d6000fd5b50620011676001600b546200252890919063ffffffff16565b50600c600085815260200190815260200160002060008082016000905560018201600090556002820160006101000a81549073ffffffffffffffffffffffffffffffffffffffff021916905550505050919050565b606080606080600b546001600a540303604051908082528060200260200182016040528015620011fb5781602001602082028038833980820191505090505b5090506060600b546001600a540303604051908082528060200260200182016040528015620012395781602001602082028038833980820191505090505b5090506060600b546001600a540303604051908082528060200260200182016040528015620012775781602001602082028038833980820191505090505b50905060008090506000600190505b600a5481101562001341576000600c600083815260200190815260200160002060000154146200133357600c600082815260200190815260200160002060000154858381518110620012d457fe5b602002602001018181525050600c6000828152602001908152602001600020600101548483815181106200130457fe5b602002602001018181525050808383815181106200131e57fe5b60200260200101818152505081806001019250505b808060010191505062001286565b5083838396509650965050505050909192565b6200135e62001576565b6200136857600080fd5b600073ffffffffffffffffffffffffffffffffffffffff166000809054906101000a900473ffffffffffffffffffffffffffffffffffffffff1673ffffffffffffffffffffffffffffffffffffffff167f8be0079c531659141344cd1fd0a4f28419497f9722a3daafe3b4186f6b6457e060405160405180910390a360008060006101000a81548173ffffffffffffffffffffffffffffffffffffffff021916908373ffffffffffffffffffffffffffffffffffffffff160217905550565b6060806004805490506040519080825280602002602001820160405280156200145f5781602001602082028038833980820191505090505b509050600080905060008090505b60048054905081101562001512577fffffffffffffffffffffffffffffffffffffffffffffffffffffffffffffffff60048281548110620014aa57fe5b90600052602060002090600202016001015414620015045760048181548110620014d057fe5b906000526020600020906002020160010154838381518110620014ef57fe5b60200260200101818152505081806001019250505b80806001019150506200146d565b50819250505090565b60008060009054906101000a900473ffffffffffffffffffffffffffffffffffffffff16905090565b600181815481106200155257fe5b90600052602060002090600202016000915090508060000154908060010154905082565b60008060009054906101000a900473ffffffffffffffffffffffffffffffffffffffff1673ffffffffffffffffffffffffffffffffffffffff163373ffffffffffffffffffffffffffffffffffffffff1614905090565b606080606080600854600160075403036040519080825280602002602001820160405280156200160c5781602001602082028038833980820191505090505b5090506060600854600160075403036040519080825280602002602001820160405280156200164a5781602001602082028038833980820191505090505b509050606060085460016007540303604051908082528060200260200182016040528015620016885781602001602082028038833980820191505090505b50905060008090506000600190505b6007548110156200175257600060096000838152602001908152602001600020600001541462001744576009600082815260200190815260200160002060000154858381518110620016e557fe5b60200260200101818152505060096000828152602001908152602001600020600101548483815181106200171557fe5b602002602001018181525050808383815181106200172f57fe5b60200260200101818152505081806001019250505b808060010191505062001697565b5083838396509650965050505050909192565b6200176f62002836565b6009600083815260200190815260200160002060405180606001604052908160008201548152602001600182015481526020016002820160009054906101000a900473ffffffffffffffffffffffffffffffffffffffff1673ffffffffffffffffffffffffffffffffffffffff1673ffffffffffffffffffffffffffffffffffffffff16815250509050600115156200180d8260200151336200238e565b15151462001883576040517f08c379a00000000000000000000000000000000000000000000000000000000081526004018080602001828103825260178152602001807f596f7520646f6e2774204f776e2074686174206361726400000000000000000081525060200191505060405180910390fd5b600115156200189b826000015183604001516200238e565b15151462001911576040517f08c379a000000000000000000000000000000000000000000000000000000000815260040180806020018281038252601e8152602001807f54726164657220646f6e2774204f776e20746861742063617264206e6f77000081525060200191505060405180910390fd5b33600260006200192a846000015185604001516200245f565b815260200190815260200160002060006101000a81548173ffffffffffffffffffffffffffffffffffffffff021916908373ffffffffffffffffffffffffffffffffffffffff1602179055508060400151600260006200198f8460200151336200245f565b815260200190815260200160002060006101000a81548173ffffffffffffffffffffffffffffffffffffffff021916908373ffffffffffffffffffffffffffffffffffffffff160217905550620019f360016008546200252890919063ffffffff16565b506009600083815260200190815260200160002060008082016000905560018201600090556002820160006101000a81549073ffffffffffffffffffffffffffffffffffffffff021916905550505050565b60608060068054905060405190808252806020026020018201604052801562001a7d5781602001602082028038833980820191505090505b509050600080905060008090505b60068054905081101562001b2d576006818154811062001aa757fe5b9060005260206000200160009054906101000a900473ffffffffffffffffffffffffffffffffffffffff1683838060010194508151811062001ae557fe5b602002602001019073ffffffffffffffffffffffffffffffffffffffff16908173ffffffffffffffffffffffffffffffffffffffff1681525050808060010191505062001a8b565b50819250505090565b6001151562001b4683856200238e565b15151462001bbc576040517f08c379a00000000000000000000000000000000000000000000000000000000081526004018080602001828103825260178152602001807f596f7520646f6e2774204f776e2074686174206361726400000000000000000081525060200191505060405180910390fd5b600085858585853060405162001bd290620028a4565b808781526020018660ff1660ff1681526020018573ffffffffffffffffffffffffffffffffffffffff1673ffffffffffffffffffffffffffffffffffffffff1681526020018481526020018381526020018273ffffffffffffffffffffffffffffffffffffffff1673ffffffffffffffffffffffffffffffffffffffff1681526020019650505050505050604051809103906000f08015801562001c7a573d6000803e3d6000fd5b509050600060016004604051806040016040528086815260200187815250908060018154018082558091505090600182039060005260206000209060020201600090919290919091506000820151816000015560208201518160010155505003905080600560008773ffffffffffffffffffffffffffffffffffffffff1673ffffffffffffffffffffffffffffffffffffffff1681526020019081526020016000208190555060068290806001815401808255809150509060018203906000526020600020016000909192909190916101000a81548173ffffffffffffffffffffffffffffffffffffffff021916908373ffffffffffffffffffffffffffffffffffffffff1602179055505050505050505050565b606080600360008473ffffffffffffffffffffffffffffffffffffffff1673ffffffffffffffffffffffffffffffffffffffff1681526020019081526020016000205460405190808252806020026020018201604052801562001e015781602001602082028038833980820191505090505b509050600080905060008090505b60018054905081101562001ed5578473ffffffffffffffffffffffffffffffffffffffff166002600083815260200190815260200160002060009054906101000a900473ffffffffffffffffffffffffffffffffffffffff1673ffffffffffffffffffffffffffffffffffffffff16141562001ec7576001818154811062001e9357fe5b90600052602060002090600202016001015483838151811062001eb257fe5b60200260200101818152505081806001019250505b808060010191505062001e0f565b508192505050919050565b62001eea62001576565b62001ef457600080fd5b62001eff816200255d565b50565b600080905060008090505b60068054905081101562001fa0578573ffffffffffffffffffffffffffffffffffffffff166006828154811062001f4057fe5b9060005260206000200160009054906101000a900473ffffffffffffffffffffffffffffffffffffffff1673ffffffffffffffffffffffffffffffffffffffff16141562001f92576001915062001fa0565b808060010191505062001f0d565b600115158215151462001fff576040517f08c379a000000000000000000000000000000000000000000000000000000000815260040180806020018281038252602181526020018062003cda6021913960400191505060405180910390fd5b620020546001600360008773ffffffffffffffffffffffffffffffffffffffff1673ffffffffffffffffffffffffffffffffffffffff168152602001908152602001600020546200252890919063ffffffff16565b600360008673ffffffffffffffffffffffffffffffffffffffff1673ffffffffffffffffffffffffffffffffffffffff16815260200190815260200160002081905550620020ec6001600360008873ffffffffffffffffffffffffffffffffffffffff1673ffffffffffffffffffffffffffffffffffffffff168152602001908152602001600020546200254590919063ffffffff16565b600360008773ffffffffffffffffffffffffffffffffffffffff1673ffffffffffffffffffffffffffffffffffffffff1681526020019081526020016000208190555083600260006200214086896200245f565b815260200190815260200160002060006101000a81548173ffffffffffffffffffffffffffffffffffffffff021916908373ffffffffffffffffffffffffffffffffffffffff1602179055507fffffffffffffffffffffffffffffffffffffffffffffffffffffffffffffffff6004600560008873ffffffffffffffffffffffffffffffffffffffff1673ffffffffffffffffffffffffffffffffffffffff1681526020019081526020016000205481548110620021fa57fe5b9060005260206000209060020201600101819055507fffffffffffffffffffffffffffffffffffffffffffffffffffffffffffffffff6004600560008873ffffffffffffffffffffffffffffffffffffffff1673ffffffffffffffffffffffffffffffffffffffff16815260200190815260200160002054815481106200227d57fe5b9060005260206000209060020201600001819055506200229d8162002656565b620022e7600560008773ffffffffffffffffffffffffffffffffffffffff1673ffffffffffffffffffffffffffffffffffffffff168152602001908152602001600020546200276c565b7fddf252ad1be2c89b69c2b068fc378daa952ba7f163c4a11628f55a4df523b3ef858585604051808473ffffffffffffffffffffffffffffffffffffffff1673ffffffffffffffffffffffffffffffffffffffff1681526020018373ffffffffffffffffffffffffffffffffffffffff1673ffffffffffffffffffffffffffffffffffffffff168152602001828152602001935050505060405180910390a1505050505050565b6000806000905060008090505b60018054905081101562002454578373ffffffffffffffffffffffffffffffffffffffff166002600083815260200190815260200160002060009054906101000a900473ffffffffffffffffffffffffffffffffffffffff1673ffffffffffffffffffffffffffffffffffffffff1614801562002436575084600182815481106200242257fe5b906000526020600020906002020160010154145b1562002446576001915062002454565b80806001019150506200239b565b508091505092915050565b600080600090505b60018054905081101562002520578273ffffffffffffffffffffffffffffffffffffffff166002600083815260200190815260200160002060009054906101000a900473ffffffffffffffffffffffffffffffffffffffff1673ffffffffffffffffffffffffffffffffffffffff161480156200250257508360018281548110620024ee57fe5b906000526020600020906002020160010154145b1562002512578091505062002522565b808060010191505062002467565b505b92915050565b6000808284019050838110156200253b57fe5b8091505092915050565b6000828211156200255257fe5b818303905092915050565b600073ffffffffffffffffffffffffffffffffffffffff168173ffffffffffffffffffffffffffffffffffffffff1614156200259857600080fd5b8073ffffffffffffffffffffffffffffffffffffffff166000809054906101000a900473ffffffffffffffffffffffffffffffffffffffff1673ffffffffffffffffffffffffffffffffffffffff167f8be0079c531659141344cd1fd0a4f28419497f9722a3daafe3b4186f6b6457e060405160405180910390a3806000806101000a81548173ffffffffffffffffffffffffffffffffffffffff021916908373ffffffffffffffffffffffffffffffffffffffff16021790555050565b60008190505b6001600680549050038110156200270d57600660018201815481106200267e57fe5b9060005260206000200160009054906101000a900473ffffffffffffffffffffffffffffffffffffffff1660068281548110620026b757fe5b9060005260206000200160006101000a81548173ffffffffffffffffffffffffffffffffffffffff021916908373ffffffffffffffffffffffffffffffffffffffff16021790555080806001019150506200265c565b506006600160068054905003815481106200272457fe5b9060005260206000200160006101000a81549073ffffffffffffffffffffffffffffffffffffffff02191690556006805480919060019003620027689190620028b2565b5050565b60008190505b600160048054905003811015620027e357600460018201815481106200279457fe5b906000526020600020906002020160048281548110620027b057fe5b90600052602060002090600202016000820154816000015560018201548160010155905050808060010191505062002772565b50600460016004805490500381548110620027fa57fe5b9060005260206000209060020201600080820160009055600182016000905550506004805480919060019003620028329190620028e1565b5050565b60405180606001604052806000815260200160008152602001600073ffffffffffffffffffffffffffffffffffffffff1681525090565b60405180606001604052806000815260200160008152602001600073ffffffffffffffffffffffffffffffffffffffff1681525090565b611369806200297183390190565b815481835581811115620028dc57818360005260206000209182019101620028db919062002916565b5b505050565b81548183558181111562002911576002028160020283600052602060002091820191016200291091906200293e565b5b505050565b6200293b91905b80821115620029375760008160009055506001016200291d565b5090565b90565b6200296d91905b80821115620029695760008082016000905560018201600090555060020162002945565b5090565b9056fe608060405234801561001057600080fd5b50604051611369380380611369833981810160405260c081101561003357600080fd5b810190808051906020019092919080519060200190929190805190602001909291908051906020019092919080519060200190929190805190602001909291905050508460ff1660028081111561008657fe5b101561009157600080fd5b83600160006101000a81548173ffffffffffffffffffffffffffffffffffffffff021916908373ffffffffffffffffffffffffffffffffffffffff16021790555042600281905550600060028111156100e657fe5b8560ff1614156100fd57620151808602955061013f565b6001600281111561010a57fe5b8560ff16141561012057610e108602955061013e565b60028081111561012c57fe5b8560ff16141561013d57603c860295505b5b5b85600254016003819055506001600a60006101000a81548160ff0219169083600181111561016957fe5b02179055508160066000018190555082600660010181905550806000806101000a81548173ffffffffffffffffffffffffffffffffffffffff021916908373ffffffffffffffffffffffffffffffffffffffff160217905550505050505050611192806101d76000396000f3fe6080604052600436106100dd5760003560e01c8063a86f74251161007f578063c458b65a11610059578063c458b65a146102bc578063c486456c146102e7578063d57bde7914610320578063efbf6e0b1461034b576100dd565b8063a86f742514610244578063bbafd3d414610276578063bdc0779a146102a5576100dd565b80633ccfd60b116100bb5780633ccfd60b1461019457806378f45340146101c357806384ddc67f146101ee5780638b7afe2e14610219576100dd565b80630ac298dc146100ec5780631998aeef146101435780633ba88ca114610165575b3480156100e957600080fd5b50005b3480156100f857600080fd5b50610101610376565b604051808273ffffffffffffffffffffffffffffffffffffffff1673ffffffffffffffffffffffffffffffffffffffff16815260200191505060405180910390f35b61014b6103a0565b604051808215151515815260200191505060405180910390f35b34801561017157600080fd5b5061017a61069f565b604051808215151515815260200191505060405180910390f35b3480156101a057600080fd5b506101a96107ac565b604051808215151515815260200191505060405180910390f35b3480156101cf57600080fd5b506101d86109f2565b6040518082815260200191505060405180910390f35b3480156101fa57600080fd5b506102036109f8565b6040518082815260200191505060405180910390f35b34801561022557600080fd5b5061022e610a3f565b6040518082815260200191505060405180910390f35b34801561025057600080fd5b50610259610aa1565b604051808381526020018281526020019250505060405180910390f35b34801561028257600080fd5b5061028b610ab3565b604051808215151515815260200191505060405180910390f35b3480156102b157600080fd5b506102ba610c4a565b005b3480156102c857600080fd5b506102d1611055565b6040518082815260200191505060405180910390f35b3480156102f357600080fd5b506102fc61105b565b6040518082600181111561030c57fe5b60ff16815260200191505060405180910390f35b34801561032c57600080fd5b5061033561106e565b6040518082815260200191505060405180910390f35b34801561035757600080fd5b50610360611074565b6040518082815260200191505060405180910390f35b6000600160009054906101000a900473ffffffffffffffffffffffffffffffffffffffff16905090565b60006003544211156103b157600080fd5b60045434600960003373ffffffffffffffffffffffffffffffffffffffff1673ffffffffffffffffffffffffffffffffffffffff168152602001908152602001600020540111610469576040517f08c379a00000000000000000000000000000000000000000000000000000000081526004018080602001828103825260208152602001807f596f752063616e2774206269642c204d616b652061206869676865722042696481525060200191505060405180910390fd5b33600560006101000a81548173ffffffffffffffffffffffffffffffffffffffff021916908373ffffffffffffffffffffffffffffffffffffffff16021790555034600960003373ffffffffffffffffffffffffffffffffffffffff1673ffffffffffffffffffffffffffffffffffffffff16815260200190815260200160002054016004819055506000600960003373ffffffffffffffffffffffffffffffffffffffff1673ffffffffffffffffffffffffffffffffffffffff1681526020019081526020016000205414156105a15760083390806001815401808255809150509060018203906000526020600020016000909192909190916101000a81548173ffffffffffffffffffffffffffffffffffffffff021916908373ffffffffffffffffffffffffffffffffffffffff160217905550505b34600960003373ffffffffffffffffffffffffffffffffffffffff1673ffffffffffffffffffffffffffffffffffffffff1681526020019081526020016000205401600960003373ffffffffffffffffffffffffffffffffffffffff1673ffffffffffffffffffffffffffffffffffffffff16815260200190815260200160002081905550600560009054906101000a900473ffffffffffffffffffffffffffffffffffffffff1673ffffffffffffffffffffffffffffffffffffffff167f0d993d4f8a84158f5329713d6d13ef54e77b325040c887c8b3e565cfd0cd3e216004546040518082815260200191505060405180910390a26001905090565b6000600160009054906101000a900473ffffffffffffffffffffffffffffffffffffffff1673ffffffffffffffffffffffffffffffffffffffff163373ffffffffffffffffffffffffffffffffffffffff16146106fb57600080fd5b60035442111561070a57600080fd5b6000600a60006101000a81548160ff0219169083600181111561072957fe5b0217905550426003819055507f06b08932edfa95ecf10e18f8e389c58332551bbfe5faf843ed9afb329fd14118426040518080602001838152602001828103825260118152602001807f41756374696f6e2043616e63656c6c65640000000000000000000000000000008152506020019250505060405180910390a16001905090565b60006003544211610808576040517f08c379a000000000000000000000000000000000000000000000000000000000815260040180806020018281038252602d815260200180611082602d913960400191505060405180910390fd5b600560009054906101000a900473ffffffffffffffffffffffffffffffffffffffff1673ffffffffffffffffffffffffffffffffffffffff163373ffffffffffffffffffffffffffffffffffffffff1614156108af576040517f08c379a00000000000000000000000000000000000000000000000000000000081526004018080602001828103825260278152602001806111146027913960400191505060405180910390fd5b6000600960003373ffffffffffffffffffffffffffffffffffffffff1673ffffffffffffffffffffffffffffffffffffffff1681526020019081526020016000205490506000600960003373ffffffffffffffffffffffffffffffffffffffff1673ffffffffffffffffffffffffffffffffffffffff168152602001908152602001600020819055503373ffffffffffffffffffffffffffffffffffffffff166108fc829081150290604051600060405180830381858888f1935050505015801561097e573d6000803e3d6000fd5b507f2f174ca282119315c59efaf21147aef438581dabdeb498198ae28964373dd8bc3382604051808373ffffffffffffffffffffffffffffffffffffffff1673ffffffffffffffffffffffffffffffffffffffff1681526020018281526020019250505060405180910390a1600191505090565b60025481565b6000600960003373ffffffffffffffffffffffffffffffffffffffff1673ffffffffffffffffffffffffffffffffffffffff16815260200190815260200160002054905090565b6000600160009054906101000a900473ffffffffffffffffffffffffffffffffffffffff1673ffffffffffffffffffffffffffffffffffffffff163373ffffffffffffffffffffffffffffffffffffffff1614610a9b57600080fd5b47905090565b60068060000154908060010154905082565b6000600160009054906101000a900473ffffffffffffffffffffffffffffffffffffffff1673ffffffffffffffffffffffffffffffffffffffff163373ffffffffffffffffffffffffffffffffffffffff1614610b0f57600080fd5b6003544211610b69576040517f08c379a00000000000000000000000000000000000000000000000000000000081526004018080602001828103825260398152602001806110db6039913960400191505060405180910390fd5b60008090505b600880549050811015610c095760006009600060088481548110610b8f57fe5b9060005260206000200160009054906101000a900473ffffffffffffffffffffffffffffffffffffffff1673ffffffffffffffffffffffffffffffffffffffff1673ffffffffffffffffffffffffffffffffffffffff1681526020019081526020016000205414610bfc57fe5b8080600101915050610b6f565b506000600160009054906101000a900473ffffffffffffffffffffffffffffffffffffffff1690508073ffffffffffffffffffffffffffffffffffffffff16ff5b6003544211610ca4576040517f08c379a000000000000000000000000000000000000000000000000000000000815260040180806020018281038252602c8152602001806110af602c913960400191505060405180910390fd5b600560009054906101000a900473ffffffffffffffffffffffffffffffffffffffff1673ffffffffffffffffffffffffffffffffffffffff163373ffffffffffffffffffffffffffffffffffffffff1614610d4a576040517f08c379a000000000000000000000000000000000000000000000000000000000815260040180806020018281038252602381526020018061113b6023913960400191505060405180910390fd5b6000600960003373ffffffffffffffffffffffffffffffffffffffff1673ffffffffffffffffffffffffffffffffffffffff1681526020019081526020016000205490506000600960003373ffffffffffffffffffffffffffffffffffffffff1673ffffffffffffffffffffffffffffffffffffffff168152602001908152602001600020819055506000600160009054906101000a900473ffffffffffffffffffffffffffffffffffffffff1690508073ffffffffffffffffffffffffffffffffffffffff166108fc839081150290604051600060405180830381858888f19350505050158015610e40573d6000803e3d6000fd5b506000809054906101000a900473ffffffffffffffffffffffffffffffffffffffff1673ffffffffffffffffffffffffffffffffffffffff1663f31281d730600160009054906101000a900473ffffffffffffffffffffffffffffffffffffffff16600560009054906101000a900473ffffffffffffffffffffffffffffffffffffffff166006600101546040518563ffffffff1660e01b8152600401808573ffffffffffffffffffffffffffffffffffffffff1673ffffffffffffffffffffffffffffffffffffffff1681526020018473ffffffffffffffffffffffffffffffffffffffff1673ffffffffffffffffffffffffffffffffffffffff1681526020018373ffffffffffffffffffffffffffffffffffffffff1673ffffffffffffffffffffffffffffffffffffffff168152602001828152602001945050505050600060405180830381600087803b158015610f9a57600080fd5b505af1158015610fae573d6000803e3d6000fd5b505050507f8ed7db30df47fbd87811a5e8a95a94838f0c0241263d9a1865d6a2a3e10516e2338284604051808473ffffffffffffffffffffffffffffffffffffffff1673ffffffffffffffffffffffffffffffffffffffff1681526020018373ffffffffffffffffffffffffffffffffffffffff1673ffffffffffffffffffffffffffffffffffffffff168152602001828152602001935050505060405180910390a15050565b60035481565b600a60009054906101000a900460ff1681565b60045481565b600060088054905090509056fe596f752063616e27742077697468647261772c207468652061756374696f6e206973207374696c6c206f70656e596f752063616e277420627579204361722c207468652061756374696f6e206973207374696c6c206f70656e596f752063616e27742064657374727563742074686520636f6e74726163742c5468652061756374696f6e206973207374696c6c206f70656e596f752063616e27742077697468647261772c20596f7520776f6e207468652041756374696f6e4f6e6c7920686967686573744269646465722063616e20627579207468652063617264a265627a7a72315820fb7e10f0c66fa63ff3663e71bb748445163bd75856c76dc1a3cc192122dea63164736f6c634300051000324f6e6c7920436f6e74726163742043616e20446f20746865205472616e73666572a265627a7a7231582095085d58828d7aac1945286e0c0088fadd2bc1c3a06aa544275c74892bce7d6c64736f6c63430005100032",
  "source": "pragma solidity >=0.5.0 <0.6.0;\n\nimport \"./ownable.sol\";\nimport \"./Auction.sol\";\nimport \"./safemath.sol\";\n\ncontract Cardbank is Ownable{\n    using SafeMath for uint256;\n    event Transfer(address _from, address _to, uint _tokenId);\n\n    struct Card {\n        uint tokenid;\n        uint cardid;\n    }\n\n    //All cards are stored here\n    Card[] public cards;\n\n\n    mapping (uint => address) cardOwner;\n    mapping (address => uint) ownerCardCount;\n\n    //All Auction cards are stored here\n    Card[] private CardsAtAuction;\n    mapping (address => uint) auctionCardOwnerToId;\n\n    // All Auction contract address are stored here\n    address[] newContracts;\n    // Trading offer\n    struct TradingOffer{\n        uint cardid;\n        uint forCardid;\n        address sender;\n    }\n    uint private offerNumber = 1;\n    uint private offerAccepted = uint(0);\n    mapping(uint => TradingOffer) private offNumTradingOffer;\n     // Selling offer\n    struct sellingOffer{\n        uint cardid;\n        uint etherValue; // Wei\n        address sender;\n    }\n    uint private sellingOfferNumber = 1;\n    uint private SellingOfferAccepted = uint(0);\n    mapping(uint => sellingOffer) private SellOffNumSellingOffer;\n\n    // Allow you to create a selling offer _etherValue is in wei\n    function _initiateSellingOffer( address _sender, uint _cardId, uint _etherValue) public\n    {\n        require(cardOwnedByUser(_cardId, _sender) == true, \"You don't Own that card\");\n        sellingOffer memory offer;\n        offer.cardid = _cardId;\n        offer.etherValue = _etherValue;\n        offer.sender = _sender;\n        SellOffNumSellingOffer[sellingOfferNumber++] = offer;\n    }\n\n    // Will give you all the valid selling card offers\n    function sellingOffers() external view returns(uint[] memory , uint[] memory, uint[] memory ) {\n        uint[] memory _cardId = new uint[](sellingOfferNumber-1-SellingOfferAccepted);\n        uint[] memory _cost = new uint[](sellingOfferNumber-1-SellingOfferAccepted);\n        uint[] memory _offerNumber = new uint[](sellingOfferNumber-1-SellingOfferAccepted);\n        uint counter = 0;\n        for (uint i = 1; i < sellingOfferNumber; i++) {\n            if(SellOffNumSellingOffer[i].cardid != uint(0)){\n            _cardId[counter] = SellOffNumSellingOffer[i].cardid;\n            _cost[counter] = SellOffNumSellingOffer[i].etherValue;\n            _offerNumber[counter] = i;\n            counter++;\n            }\n        }\n        return (_cardId, _cost,_offerNumber);\n    }\n\n    // Allow you to accept the selling offer\n    function acceptSellingOffer(uint _offerNumber) public payable returns (bool){\n        sellingOffer memory offer = SellOffNumSellingOffer[_offerNumber];\n        require(offer.etherValue ==msg.value, \"Not Enough Ether\");\n        require(cardOwnedByUser(offer.cardid, offer.sender) == true, \"Trader don't Own that card now\");\n\n        cardOwner[cardUniqueID(offer.cardid, offer.sender)] = msg.sender;\n        ownerCardCount[msg.sender] = ownerCardCount[msg.sender].add(1);\n        ownerCardCount[offer.sender] = ownerCardCount[offer.sender].sub(1);\n        address payable offerHolder = address(uint160(offer.sender));\n        offerHolder.transfer(offer.etherValue);\n        SellingOfferAccepted.add(1);\n        delete SellOffNumSellingOffer[_offerNumber];\n    }\n\n    // Allow you to create a trading offer\n    function _initiateTradingOffer( address _sender, uint _tradeCard, uint _forCard) public\n    {\n        require(cardOwnedByUser(_tradeCard, _sender) == true, \"You don't Own that card\");\n        TradingOffer memory offer;\n        offer.cardid = _tradeCard;\n        offer.forCardid = _forCard;\n        offer.sender = _sender;\n        offNumTradingOffer[offerNumber++] = offer;\n    }\n\n    // Will give you all the valid trading card offers\n    function TradingOffers() external view returns(uint[] memory , uint[] memory, uint[] memory ) {\n        uint[] memory _cardId = new uint[](offerNumber-1-offerAccepted);\n        uint[] memory _forCardId = new uint[](offerNumber-1-offerAccepted);\n        uint[] memory _offerNumber = new uint[](offerNumber-1-offerAccepted);\n        uint counter = 0;\n        for (uint i = 1; i < offerNumber; i++) {\n            if(offNumTradingOffer[i].cardid != uint(0)){\n            _cardId[counter] = offNumTradingOffer[i].cardid;\n            _forCardId[counter] = offNumTradingOffer[i].forCardid;\n            _offerNumber[counter] = i;\n            counter++;\n            }\n        }\n        return (_cardId, _forCardId,_offerNumber);\n    }\n\n    // Allow you to accept the trading offer\n    function acceptTradingOffer(uint _offerNumber) external  {\n        TradingOffer memory offer = offNumTradingOffer[_offerNumber];\n        require(cardOwnedByUser(offer.forCardid, msg.sender) == true, \"You don't Own that card\");\n        require(cardOwnedByUser(offer.cardid, offer.sender) == true, \"Trader don't Own that card now\");\n\n        cardOwner[cardUniqueID(offer.cardid, offer.sender)] = msg.sender;\n        cardOwner[cardUniqueID(offer.forCardid, msg.sender)] = offer.sender;\n        offerAccepted.add(1);\n        delete offNumTradingOffer[_offerNumber];\n    }\n\n    // Tranfer a card to a friend\n    function transferACardToFriend(uint _cardId, address _to) external  {\n        require(cardOwnedByUser(_cardId, msg.sender) == true, \"You don't Own that card\");\n        cardOwner[cardUniqueID(_cardId, msg.sender)] = _to;\n        ownerCardCount[_to] = ownerCardCount[_to].add(1);\n        ownerCardCount[msg.sender] = ownerCardCount[msg.sender].sub(1);\n    }\n\n    function _createNewCard(uint _tokenid, uint _cardid ) internal{\n        uint id = cards.push(Card(_tokenid, _cardid)) -1;\n        cardOwner[id] = msg.sender;\n        ownerCardCount[msg.sender]++;\n    }\n\n\n    //Returns an array of card IDs owned by an account\n    function getCardsByOwner(address _owner) external view returns (uint[] memory) {\n        uint[] memory result = new uint[](ownerCardCount[_owner]);\n        uint counter = 0;\n        for (uint i = 0; i < cards.length; i++) {\n          if (cardOwner[i] == _owner) {\n            result[counter] = cards[i].cardid;\n            counter++;\n          }\n        }\n        return result;\n    }\n\n    // Return the cards on Auction\n    function cardsOnAuction() external view returns (uint[] memory) {\n        uint[] memory result = new uint[](CardsAtAuction.length);\n                uint counter = 0;\n                for (uint i = 0; i < CardsAtAuction.length; i++) {\n                    if(CardsAtAuction[i].cardid != uint(-1))\n                    {\n                        result[counter] = CardsAtAuction[i].cardid;\n                        counter++;\n                    }\n                }\n                return result;\n    }\n\n    // Sends the index of card of particular owner\n    function cardUniqueID(uint _CardId, address _owner) private view returns (uint ID)\n    {\n\n       for (uint i = 0; i < cards.length; i++) {\n          if (cardOwner[i] == _owner && cards[i].cardid == _CardId) {\n            return i;\n          }\n        }\n    }\n\n    // checks if card is owner by the user\n    function cardOwnedByUser(uint _CardId, address _owner) private view returns (bool found)\n    {\n        bool foundID = false;\n        for (uint i = 0; i < cards.length; i++) {\n          if (cardOwner[i] == _owner && cards[i].cardid == _CardId) {\n            foundID = true;break;\n          }\n        }\n        return foundID;\n\n    }\n\n    // Create Auction Contract\n    function createAuctionContract(uint _auctionTime, uint8 timeFormat , address _owner, uint _CardId, uint _TokenId) public{\n        require(cardOwnedByUser(_CardId, _owner) == true, \"You don't Own that card\");\n        address newContract = address(new MyAuction(_auctionTime, timeFormat , _owner, _CardId, _TokenId, address(this)));\n        uint id = CardsAtAuction.push(Card(_TokenId, _CardId)) - 1;\n        auctionCardOwnerToId[_owner] = id;\n        newContracts.push(newContract);\n    }\n\n    // Removes address from the newContract array\n    function removeContracAddress(uint index) internal\n    {\n        for (uint i = index; i<newContracts.length-1; i++){\n            newContracts[i] = newContracts[i+1];\n        }\n        delete newContracts[newContracts.length-1];\n        newContracts.length--;\n    }\n\n    // Removes the Cards from the Auction\n    function removeCardFromAuction(uint index) private\n    {\n        for (uint i = index; i<CardsAtAuction.length-1; i++){\n            CardsAtAuction[i] = CardsAtAuction[i+1];\n        }\n        delete CardsAtAuction[CardsAtAuction.length-1];\n        CardsAtAuction.length--;\n    }\n\n    // Give Addresses of contract\n    function giveMeAddresses() public view returns(address[] memory)\n    {\n        address[] memory result = new address[](newContracts.length);\n                uint counter = 0;\n                for (uint i = 0; i < newContracts.length; i++) {\n                        result[counter++] = newContracts[i];\n                }\n\n                return result;\n    }\n\n    // transfer card only via created auction contract\n    function _transfer(address contractaddress, address _from, address _to, uint256 _CardId) external {\n        bool flagAddressFound = false;\n        uint i;\n        for (i = 0; i < newContracts.length; i++) {\n            if(newContracts[i] == contractaddress)\n                {\n                    flagAddressFound = true;\n                    break;\n                }\n        }\n        require(flagAddressFound==true, \"Only Contract Can Do the Transfer\");\n\n        // need to check _transfer only happens from\n        ownerCardCount[_to] = ownerCardCount[_to].add(1);\n        ownerCardCount[_from] = ownerCardCount[_from].sub(1);\n\n        cardOwner[cardUniqueID(_CardId, _from)] = _to;\n        CardsAtAuction[auctionCardOwnerToId[_from]].cardid = uint(-1);\n        CardsAtAuction[auctionCardOwnerToId[_from]].tokenid = uint(-1);\n\n        removeContracAddress(i);\n\n        removeCardFromAuction(auctionCardOwnerToId[_from]);\n        emit Transfer(_from, _to, _CardId);\n    }\n\n}\n\n",
  "sourcePath": "/Users/mohitsingh/Documents/COLORADO STATE UNIVERSITY/Block Chain/BlockChain Project/trial/contracts/cardbank.sol",
  "compiler": {
    "name": "solc",
    "version": "0.5.16+commit.9c3226ce.Emscripten.clang"
  },
  "schemaVersion": "3.0.23",
  "updatedAt": "2020-05-01T22:57:55.803Z",
  "devdoc": {
    "methods": {
      "isOwner()": {
        "return": "true if `msg.sender` is the owner of the contract."
      },
      "owner()": {
        "return": "the address of the owner."
      },
      "renounceOwnership()": {
        "details": "Allows the current owner to relinquish control of the contract."
      },
      "transferOwnership(address)": {
        "details": "Allows the current owner to transfer control of the contract to a newOwner.",
        "params": {
          "newOwner": "The address to transfer ownership to."
        }
      }
    }
  },
  "userdoc": {
    "methods": {
      "renounceOwnership()": {
        "notice": "Renouncing to ownership will leave the contract without an owner. It will not be possible to call the functions with the `onlyOwner` modifier anymore."
      }
    }
  }
}