{
  "contractName": "Cardbank",
  "abi": [
    {
      "anonymous": false,
      "inputs": [
        {
          "indexed": true,
          "internalType": "address",
          "name": "previousOwner",
          "type": "address"
        },
        {
          "indexed": true,
          "internalType": "address",
          "name": "newOwner",
          "type": "address"
        }
      ],
      "name": "OwnershipTransferred",
      "type": "event"
    },
    {
      "anonymous": false,
      "inputs": [
        {
          "indexed": false,
          "internalType": "address",
          "name": "_from",
          "type": "address"
        },
        {
          "indexed": false,
          "internalType": "address",
          "name": "_to",
          "type": "address"
        },
        {
          "indexed": false,
          "internalType": "uint256",
          "name": "_tokenId",
          "type": "uint256"
        }
      ],
      "name": "Transfer",
      "type": "event"
    },
    {
      "constant": true,
      "inputs": [
        {
          "internalType": "uint256",
          "name": "",
          "type": "uint256"
        }
      ],
      "name": "cards",
      "outputs": [
        {
          "internalType": "uint256",
          "name": "tokenid",
          "type": "uint256"
        },
        {
          "internalType": "uint256",
          "name": "cardid",
          "type": "uint256"
        }
      ],
      "payable": false,
      "stateMutability": "view",
      "type": "function"
    },
    {
      "constant": true,
      "inputs": [],
      "name": "isOwner",
      "outputs": [
        {
          "internalType": "bool",
          "name": "",
          "type": "bool"
        }
      ],
      "payable": false,
      "stateMutability": "view",
      "type": "function"
    },
    {
      "constant": true,
      "inputs": [],
      "name": "owner",
      "outputs": [
        {
          "internalType": "address",
          "name": "",
          "type": "address"
        }
      ],
      "payable": false,
      "stateMutability": "view",
      "type": "function"
    },
    {
      "constant": false,
      "inputs": [],
      "name": "renounceOwnership",
      "outputs": [],
      "payable": false,
      "stateMutability": "nonpayable",
      "type": "function"
    },
    {
      "constant": false,
      "inputs": [
        {
          "internalType": "address",
          "name": "newOwner",
          "type": "address"
        }
      ],
      "name": "transferOwnership",
      "outputs": [],
      "payable": false,
      "stateMutability": "nonpayable",
      "type": "function"
    },
    {
      "constant": false,
      "inputs": [
        {
          "internalType": "address",
          "name": "_sender",
          "type": "address"
        },
        {
          "internalType": "uint256",
          "name": "_cardId",
          "type": "uint256"
        },
        {
          "internalType": "uint256",
          "name": "_etherValue",
          "type": "uint256"
        }
      ],
      "name": "_initiateSellingOffer",
      "outputs": [],
      "payable": false,
      "stateMutability": "nonpayable",
      "type": "function"
    },
    {
      "constant": true,
      "inputs": [],
      "name": "sellingOffers",
      "outputs": [
        {
          "internalType": "uint256[]",
          "name": "",
          "type": "uint256[]"
        },
        {
          "internalType": "uint256[]",
          "name": "",
          "type": "uint256[]"
        },
        {
          "internalType": "uint256[]",
          "name": "",
          "type": "uint256[]"
        }
      ],
      "payable": false,
      "stateMutability": "view",
      "type": "function"
    },
    {
      "constant": false,
      "inputs": [
        {
          "internalType": "uint256",
          "name": "_offerNumber",
          "type": "uint256"
        }
      ],
      "name": "acceptSellingOffer",
      "outputs": [
        {
          "internalType": "bool",
          "name": "",
          "type": "bool"
        }
      ],
      "payable": true,
      "stateMutability": "payable",
      "type": "function"
    },
    {
      "constant": false,
      "inputs": [
        {
          "internalType": "address",
          "name": "_sender",
          "type": "address"
        },
        {
          "internalType": "uint256",
          "name": "_tradeCard",
          "type": "uint256"
        },
        {
          "internalType": "uint256",
          "name": "_forCard",
          "type": "uint256"
        }
      ],
      "name": "_initiateTradingOffer",
      "outputs": [],
      "payable": false,
      "stateMutability": "nonpayable",
      "type": "function"
    },
    {
      "constant": true,
      "inputs": [],
      "name": "TradingOffers",
      "outputs": [
        {
          "internalType": "uint256[]",
          "name": "",
          "type": "uint256[]"
        },
        {
          "internalType": "uint256[]",
          "name": "",
          "type": "uint256[]"
        },
        {
          "internalType": "uint256[]",
          "name": "",
          "type": "uint256[]"
        }
      ],
      "payable": false,
      "stateMutability": "view",
      "type": "function"
    },
    {
      "constant": false,
      "inputs": [
        {
          "internalType": "uint256",
          "name": "_offerNumber",
          "type": "uint256"
        }
      ],
      "name": "acceptTradingOffer",
      "outputs": [],
      "payable": false,
      "stateMutability": "nonpayable",
      "type": "function"
    },
    {
      "constant": false,
      "inputs": [
        {
          "internalType": "uint256",
          "name": "_cardId",
          "type": "uint256"
        },
        {
          "internalType": "address",
          "name": "_to",
          "type": "address"
        }
      ],
      "name": "transferACardToFriend",
      "outputs": [],
      "payable": false,
      "stateMutability": "nonpayable",
      "type": "function"
    },
    {
      "constant": true,
      "inputs": [
        {
          "internalType": "address",
          "name": "_owner",
          "type": "address"
        }
      ],
      "name": "getCardsByOwner",
      "outputs": [
        {
          "internalType": "uint256[]",
          "name": "",
          "type": "uint256[]"
        }
      ],
      "payable": false,
      "stateMutability": "view",
      "type": "function"
    },
    {
      "constant": true,
      "inputs": [
        {
          "internalType": "address",
          "name": "_owner",
          "type": "address"
        }
      ],
      "name": "getCardsTokenByOwner",
      "outputs": [
        {
          "internalType": "uint256[]",
          "name": "",
          "type": "uint256[]"
        }
      ],
      "payable": false,
      "stateMutability": "view",
      "type": "function"
    },
    {
      "constant": true,
      "inputs": [],
      "name": "cardsOnAuction",
      "outputs": [
        {
          "internalType": "uint256[]",
          "name": "",
          "type": "uint256[]"
        }
      ],
      "payable": false,
      "stateMutability": "view",
      "type": "function"
    },
    {
      "constant": false,
      "inputs": [
        {
          "internalType": "uint256",
          "name": "_auctionTime",
          "type": "uint256"
        },
        {
          "internalType": "uint8",
          "name": "timeFormat",
          "type": "uint8"
        },
        {
          "internalType": "address",
          "name": "_owner",
          "type": "address"
        },
        {
          "internalType": "uint256",
          "name": "_CardId",
          "type": "uint256"
        },
        {
          "internalType": "uint256",
          "name": "_TokenId",
          "type": "uint256"
        }
      ],
      "name": "createAuctionContract",
      "outputs": [],
      "payable": false,
      "stateMutability": "nonpayable",
      "type": "function"
    },
    {
      "constant": true,
      "inputs": [],
      "name": "giveMeAddresses",
      "outputs": [
        {
          "internalType": "address[]",
          "name": "",
          "type": "address[]"
        }
      ],
      "payable": false,
      "stateMutability": "view",
      "type": "function"
    },
    {
      "constant": false,
      "inputs": [
        {
          "internalType": "address",
          "name": "contractaddress",
          "type": "address"
        },
        {
          "internalType": "address",
          "name": "_from",
          "type": "address"
        },
        {
          "internalType": "address",
          "name": "_to",
          "type": "address"
        },
        {
          "internalType": "uint256",
          "name": "_CardId",
          "type": "uint256"
        }
      ],
      "name": "_transfer",
      "outputs": [],
      "payable": false,
      "stateMutability": "nonpayable",
      "type": "function"
    }
  ],
  "bytecode": "0x6080604052600160075560006008556001600a556000600b55336000806101000a81548173ffffffffffffffffffffffffffffffffffffffff021916908373ffffffffffffffffffffffffffffffffffffffff1602179055506000809054906101000a900473ffffffffffffffffffffffffffffffffffffffff1673ffffffffffffffffffffffffffffffffffffffff16600073ffffffffffffffffffffffffffffffffffffffff167f8be0079c531659141344cd1fd0a4f28419497f9722a3daafe3b4186f6b6457e060405160405180910390a3613f38806100e36000396000f3fe608060405260043610620001225760003560e01c80638dc1076811620000a3578063b41e0afe116200006d578063b41e0afe1462000707578063c50b522b1462000778578063eba73c7c14620007f8578063f2fde38b14620008a4578063f31281d714620008f95762000122565b80638dc1076814620005375780638f32d59b14620005915780639ef1ddc914620005c3578063a0d83b9e14620006c85762000122565b8063572b805411620000f1578063572b805414620002a15780636a7f0c4d14620003a6578063715018a614620004525780637410b6ca146200046c5780638da5cb5b14620004dd5762000122565b806311d31b2d1462000127578063337ceda9146200019057806347b313dc14620001f957806355e984ff1462000258575b600080fd5b3480156200013457600080fd5b506200018e600480360360608110156200014d57600080fd5b81019080803573ffffffffffffffffffffffffffffffffffffffff169060200190929190803590602001909291908035906020019092919050505062000998565b005b3480156200019d57600080fd5b50620001f760048036036060811015620001b657600080fd5b81019080803573ffffffffffffffffffffffffffffffffffffffff169060200190929190803590602001909291908035906020019092919050505062000afc565b005b3480156200020657600080fd5b5062000256600480360360408110156200021f57600080fd5b8101908080359060200190929190803573ffffffffffffffffffffffffffffffffffffffff16906020019092919050505062000c60565b005b62000287600480360360208110156200027057600080fd5b810190808035906020019092919050505062000e77565b604051808215151515815260200191505060405180910390f35b348015620002ae57600080fd5b50620002b962001274565b60405180806020018060200180602001848103845287818151815260200191508051906020019060200280838360005b8381101562000306578082015181840152602081019050620002e9565b50505050905001848103835286818151815260200191508051906020019060200280838360005b838110156200034a5780820151818401526020810190506200032d565b50505050905001848103825285818151815260200191508051906020019060200280838360005b838110156200038e57808201518184015260208101905062000371565b50505050905001965050505050505060405180910390f35b348015620003b357600080fd5b50620003f960048036036020811015620003cc57600080fd5b81019080803573ffffffffffffffffffffffffffffffffffffffff1690602001909291905050506200140c565b6040518080602001828103825283818151815260200191508051906020019060200280838360005b838110156200043e57808201518184015260208101905062000421565b505050509050019250505060405180910390f35b3480156200045f57600080fd5b506200046a6200155d565b005b3480156200047957600080fd5b506200048462001630565b6040518080602001828103825283818151815260200191508051906020019060200280838360005b83811015620004c9578082015181840152602081019050620004ac565b505050509050019250505060405180910390f35b348015620004ea57600080fd5b50620004f562001724565b604051808273ffffffffffffffffffffffffffffffffffffffff1673ffffffffffffffffffffffffffffffffffffffff16815260200191505060405180910390f35b3480156200054457600080fd5b5062000574600480360360208110156200055d57600080fd5b81019080803590602001909291905050506200174d565b604051808381526020018281526020019250505060405180910390f35b3480156200059e57600080fd5b50620005a96200177f565b604051808215151515815260200191505060405180910390f35b348015620005d057600080fd5b50620005db620017d6565b60405180806020018060200180602001848103845287818151815260200191508051906020019060200280838360005b83811015620006285780820151818401526020810190506200060b565b50505050905001848103835286818151815260200191508051906020019060200280838360005b838110156200066c5780820151818401526020810190506200064f565b50505050905001848103825285818151815260200191508051906020019060200280838360005b83811015620006b057808201518184015260208101905062000693565b50505050905001965050505050505060405180910390f35b348015620006d557600080fd5b506200070560048036036020811015620006ee57600080fd5b81019080803590602001909291905050506200196e565b005b3480156200071457600080fd5b506200071f62001c4e565b6040518080602001828103825283818151815260200191508051906020019060200280838360005b838110156200076457808201518184015260208101905062000747565b505050509050019250505060405180910390f35b3480156200078557600080fd5b50620007f6600480360360a08110156200079e57600080fd5b8101908080359060200190929190803560ff169060200190929190803573ffffffffffffffffffffffffffffffffffffffff169060200190929190803590602001909291908035906020019092919050505062001d3f565b005b3480156200080557600080fd5b506200084b600480360360208110156200081e57600080fd5b81019080803573ffffffffffffffffffffffffffffffffffffffff16906020019092919050505062001f98565b6040518080602001828103825283818151815260200191508051906020019060200280838360005b838110156200089057808201518184015260208101905062000873565b505050509050019250505060405180910390f35b348015620008b157600080fd5b50620008f760048036036020811015620008ca57600080fd5b81019080803573ffffffffffffffffffffffffffffffffffffffff169060200190929190505050620020e9565b005b3480156200090657600080fd5b5062000996600480360360808110156200091f57600080fd5b81019080803573ffffffffffffffffffffffffffffffffffffffff169060200190929190803573ffffffffffffffffffffffffffffffffffffffff169060200190929190803573ffffffffffffffffffffffffffffffffffffffff169060200190929190803590602001909291905050506200210b565b005b60011515620009a8838562002597565b15151462000a1e576040517f08c379a00000000000000000000000000000000000000000000000000000000081526004018080602001828103825260178152602001807f596f7520646f6e2774204f776e2074686174206361726400000000000000000081525060200191505060405180910390fd5b62000a2862002a3f565b828160000181815250508181602001818152505083816040019073ffffffffffffffffffffffffffffffffffffffff16908173ffffffffffffffffffffffffffffffffffffffff1681525050806009600060076000815480929190600101919050558152602001908152602001600020600082015181600001556020820151816001015560408201518160020160006101000a81548173ffffffffffffffffffffffffffffffffffffffff021916908373ffffffffffffffffffffffffffffffffffffffff16021790555090505050505050565b6001151562000b0c838562002597565b15151462000b82576040517f08c379a00000000000000000000000000000000000000000000000000000000081526004018080602001828103825260178152602001807f596f7520646f6e2774204f776e2074686174206361726400000000000000000081525060200191505060405180910390fd5b62000b8c62002a76565b828160000181815250508181602001818152505083816040019073ffffffffffffffffffffffffffffffffffffffff16908173ffffffffffffffffffffffffffffffffffffffff168152505080600c6000600a6000815480929190600101919050558152602001908152602001600020600082015181600001556020820151816001015560408201518160020160006101000a81548173ffffffffffffffffffffffffffffffffffffffff021916908373ffffffffffffffffffffffffffffffffffffffff16021790555090505050505050565b6001151562000c70833362002597565b15151462000ce6576040517f08c379a00000000000000000000000000000000000000000000000000000000081526004018080602001828103825260178152602001807f596f7520646f6e2774204f776e2074686174206361726400000000000000000081525060200191505060405180910390fd5b806002600062000cf7853362002668565b815260200190815260200160002060006101000a81548173ffffffffffffffffffffffffffffffffffffffff021916908373ffffffffffffffffffffffffffffffffffffffff16021790555062000d986001600360008473ffffffffffffffffffffffffffffffffffffffff1673ffffffffffffffffffffffffffffffffffffffff168152602001908152602001600020546200273190919063ffffffff16565b600360008373ffffffffffffffffffffffffffffffffffffffff1673ffffffffffffffffffffffffffffffffffffffff1681526020019081526020016000208190555062000e306001600360003373ffffffffffffffffffffffffffffffffffffffff1673ffffffffffffffffffffffffffffffffffffffff168152602001908152602001600020546200274e90919063ffffffff16565b600360003373ffffffffffffffffffffffffffffffffffffffff1673ffffffffffffffffffffffffffffffffffffffff168152602001908152602001600020819055505050565b600062000e8362002a76565b600c600084815260200190815260200160002060405180606001604052908160008201548152602001600182015481526020016002820160009054906101000a900473ffffffffffffffffffffffffffffffffffffffff1673ffffffffffffffffffffffffffffffffffffffff1673ffffffffffffffffffffffffffffffffffffffff168152505090503481602001511462000f87576040517f08c379a00000000000000000000000000000000000000000000000000000000081526004018080602001828103825260108152602001807f4e6f7420456e6f7567682045746865720000000000000000000000000000000081525060200191505060405180910390fd5b6001151562000f9f8260000151836040015162002597565b15151462001015576040517f08c379a000000000000000000000000000000000000000000000000000000000815260040180806020018281038252601e8152602001807f54726164657220646f6e2774204f776e20746861742063617264206e6f77000081525060200191505060405180910390fd5b33600260006200102e8460000151856040015162002668565b815260200190815260200160002060006101000a81548173ffffffffffffffffffffffffffffffffffffffff021916908373ffffffffffffffffffffffffffffffffffffffff160217905550620010cf6001600360003373ffffffffffffffffffffffffffffffffffffffff1673ffffffffffffffffffffffffffffffffffffffff168152602001908152602001600020546200273190919063ffffffff16565b600360003373ffffffffffffffffffffffffffffffffffffffff1673ffffffffffffffffffffffffffffffffffffffff168152602001908152602001600020819055506200116b600160036000846040015173ffffffffffffffffffffffffffffffffffffffff1673ffffffffffffffffffffffffffffffffffffffff168152602001908152602001600020546200274e90919063ffffffff16565b60036000836040015173ffffffffffffffffffffffffffffffffffffffff1673ffffffffffffffffffffffffffffffffffffffff168152602001908152602001600020819055506000816040015190508073ffffffffffffffffffffffffffffffffffffffff166108fc83602001519081150290604051600060405180830381858888f1935050505015801562001206573d6000803e3d6000fd5b506200121f6001600b546200273190919063ffffffff16565b50600c600085815260200190815260200160002060008082016000905560018201600090556002820160006101000a81549073ffffffffffffffffffffffffffffffffffffffff021916905550505050919050565b606080606080600b546001600a540303604051908082528060200260200182016040528015620012b35781602001602082028038833980820191505090505b5090506060600b546001600a540303604051908082528060200260200182016040528015620012f15781602001602082028038833980820191505090505b5090506060600b546001600a5403036040519080825280602002602001820160405280156200132f5781602001602082028038833980820191505090505b50905060008090506000600190505b600a54811015620013f9576000600c60008381526020019081526020016000206000015414620013eb57600c6000828152602001908152602001600020600001548583815181106200138c57fe5b602002602001018181525050600c600082815260200190815260200160002060010154848381518110620013bc57fe5b60200260200101818152505080838381518110620013d657fe5b60200260200101818152505081806001019250505b80806001019150506200133e565b5083838396509650965050505050909192565b606080600360008473ffffffffffffffffffffffffffffffffffffffff1673ffffffffffffffffffffffffffffffffffffffff168152602001908152602001600020546040519080825280602002602001820160405280156200147e5781602001602082028038833980820191505090505b509050600080905060008090505b60018054905081101562001552578473ffffffffffffffffffffffffffffffffffffffff166002600083815260200190815260200160002060009054906101000a900473ffffffffffffffffffffffffffffffffffffffff1673ffffffffffffffffffffffffffffffffffffffff1614156200154457600181815481106200151057fe5b9060005260206000209060020201600001548383815181106200152f57fe5b60200260200101818152505081806001019250505b80806001019150506200148c565b508192505050919050565b620015676200177f565b6200157157600080fd5b600073ffffffffffffffffffffffffffffffffffffffff166000809054906101000a900473ffffffffffffffffffffffffffffffffffffffff1673ffffffffffffffffffffffffffffffffffffffff167f8be0079c531659141344cd1fd0a4f28419497f9722a3daafe3b4186f6b6457e060405160405180910390a360008060006101000a81548173ffffffffffffffffffffffffffffffffffffffff021916908373ffffffffffffffffffffffffffffffffffffffff160217905550565b606080600480549050604051908082528060200260200182016040528015620016685781602001602082028038833980820191505090505b509050600080905060008090505b6004805490508110156200171b577fffffffffffffffffffffffffffffffffffffffffffffffffffffffffffffffff60048281548110620016b357fe5b906000526020600020906002020160010154146200170d5760048181548110620016d957fe5b906000526020600020906002020160010154838381518110620016f857fe5b60200260200101818152505081806001019250505b808060010191505062001676565b50819250505090565b60008060009054906101000a900473ffffffffffffffffffffffffffffffffffffffff16905090565b600181815481106200175b57fe5b90600052602060002090600202016000915090508060000154908060010154905082565b60008060009054906101000a900473ffffffffffffffffffffffffffffffffffffffff1673ffffffffffffffffffffffffffffffffffffffff163373ffffffffffffffffffffffffffffffffffffffff1614905090565b60608060608060085460016007540303604051908082528060200260200182016040528015620018155781602001602082028038833980820191505090505b509050606060085460016007540303604051908082528060200260200182016040528015620018535781602001602082028038833980820191505090505b509050606060085460016007540303604051908082528060200260200182016040528015620018915781602001602082028038833980820191505090505b50905060008090506000600190505b6007548110156200195b5760006009600083815260200190815260200160002060000154146200194d576009600082815260200190815260200160002060000154858381518110620018ee57fe5b60200260200101818152505060096000828152602001908152602001600020600101548483815181106200191e57fe5b602002602001018181525050808383815181106200193857fe5b60200260200101818152505081806001019250505b8080600101915050620018a0565b5083838396509650965050505050909192565b6200197862002a3f565b6009600083815260200190815260200160002060405180606001604052908160008201548152602001600182015481526020016002820160009054906101000a900473ffffffffffffffffffffffffffffffffffffffff1673ffffffffffffffffffffffffffffffffffffffff1673ffffffffffffffffffffffffffffffffffffffff168152505090506001151562001a1682602001513362002597565b15151462001a8c576040517f08c379a00000000000000000000000000000000000000000000000000000000081526004018080602001828103825260178152602001807f596f7520646f6e2774204f776e2074686174206361726400000000000000000081525060200191505060405180910390fd5b6001151562001aa48260000151836040015162002597565b15151462001b1a576040517f08c379a000000000000000000000000000000000000000000000000000000000815260040180806020018281038252601e8152602001807f54726164657220646f6e2774204f776e20746861742063617264206e6f77000081525060200191505060405180910390fd5b336002600062001b338460000151856040015162002668565b815260200190815260200160002060006101000a81548173ffffffffffffffffffffffffffffffffffffffff021916908373ffffffffffffffffffffffffffffffffffffffff16021790555080604001516002600062001b9884602001513362002668565b815260200190815260200160002060006101000a81548173ffffffffffffffffffffffffffffffffffffffff021916908373ffffffffffffffffffffffffffffffffffffffff16021790555062001bfc60016008546200273190919063ffffffff16565b506009600083815260200190815260200160002060008082016000905560018201600090556002820160006101000a81549073ffffffffffffffffffffffffffffffffffffffff021916905550505050565b60608060068054905060405190808252806020026020018201604052801562001c865781602001602082028038833980820191505090505b509050600080905060008090505b60068054905081101562001d36576006818154811062001cb057fe5b9060005260206000200160009054906101000a900473ffffffffffffffffffffffffffffffffffffffff1683838060010194508151811062001cee57fe5b602002602001019073ffffffffffffffffffffffffffffffffffffffff16908173ffffffffffffffffffffffffffffffffffffffff1681525050808060010191505062001c94565b50819250505090565b6001151562001d4f838562002597565b15151462001dc5576040517f08c379a00000000000000000000000000000000000000000000000000000000081526004018080602001828103825260178152602001807f596f7520646f6e2774204f776e2074686174206361726400000000000000000081525060200191505060405180910390fd5b600085858585853060405162001ddb9062002aad565b808781526020018660ff1660ff1681526020018573ffffffffffffffffffffffffffffffffffffffff1673ffffffffffffffffffffffffffffffffffffffff1681526020018481526020018381526020018273ffffffffffffffffffffffffffffffffffffffff1673ffffffffffffffffffffffffffffffffffffffff1681526020019650505050505050604051809103906000f08015801562001e83573d6000803e3d6000fd5b509050600060016004604051806040016040528086815260200187815250908060018154018082558091505090600182039060005260206000209060020201600090919290919091506000820151816000015560208201518160010155505003905080600560008773ffffffffffffffffffffffffffffffffffffffff1673ffffffffffffffffffffffffffffffffffffffff1681526020019081526020016000208190555060068290806001815401808255809150509060018203906000526020600020016000909192909190916101000a81548173ffffffffffffffffffffffffffffffffffffffff021916908373ffffffffffffffffffffffffffffffffffffffff1602179055505050505050505050565b606080600360008473ffffffffffffffffffffffffffffffffffffffff1673ffffffffffffffffffffffffffffffffffffffff168152602001908152602001600020546040519080825280602002602001820160405280156200200a5781602001602082028038833980820191505090505b509050600080905060008090505b600180549050811015620020de578473ffffffffffffffffffffffffffffffffffffffff166002600083815260200190815260200160002060009054906101000a900473ffffffffffffffffffffffffffffffffffffffff1673ffffffffffffffffffffffffffffffffffffffff161415620020d057600181815481106200209c57fe5b906000526020600020906002020160010154838381518110620020bb57fe5b60200260200101818152505081806001019250505b808060010191505062002018565b508192505050919050565b620020f36200177f565b620020fd57600080fd5b620021088162002766565b50565b600080905060008090505b600680549050811015620021a9578573ffffffffffffffffffffffffffffffffffffffff16600682815481106200214957fe5b9060005260206000200160009054906101000a900473ffffffffffffffffffffffffffffffffffffffff1673ffffffffffffffffffffffffffffffffffffffff1614156200219b5760019150620021a9565b808060010191505062002116565b600115158215151462002208576040517f08c379a000000000000000000000000000000000000000000000000000000000815260040180806020018281038252602181526020018062003ee36021913960400191505060405180910390fd5b6200225d6001600360008773ffffffffffffffffffffffffffffffffffffffff1673ffffffffffffffffffffffffffffffffffffffff168152602001908152602001600020546200273190919063ffffffff16565b600360008673ffffffffffffffffffffffffffffffffffffffff1673ffffffffffffffffffffffffffffffffffffffff16815260200190815260200160002081905550620022f56001600360008873ffffffffffffffffffffffffffffffffffffffff1673ffffffffffffffffffffffffffffffffffffffff168152602001908152602001600020546200274e90919063ffffffff16565b600360008773ffffffffffffffffffffffffffffffffffffffff1673ffffffffffffffffffffffffffffffffffffffff16815260200190815260200160002081905550836002600062002349868962002668565b815260200190815260200160002060006101000a81548173ffffffffffffffffffffffffffffffffffffffff021916908373ffffffffffffffffffffffffffffffffffffffff1602179055507fffffffffffffffffffffffffffffffffffffffffffffffffffffffffffffffff6004600560008873ffffffffffffffffffffffffffffffffffffffff1673ffffffffffffffffffffffffffffffffffffffff16815260200190815260200160002054815481106200240357fe5b9060005260206000209060020201600101819055507fffffffffffffffffffffffffffffffffffffffffffffffffffffffffffffffff6004600560008873ffffffffffffffffffffffffffffffffffffffff1673ffffffffffffffffffffffffffffffffffffffff16815260200190815260200160002054815481106200248657fe5b906000526020600020906002020160000181905550620024a6816200285f565b620024f0600560008773ffffffffffffffffffffffffffffffffffffffff1673ffffffffffffffffffffffffffffffffffffffff1681526020019081526020016000205462002975565b7fddf252ad1be2c89b69c2b068fc378daa952ba7f163c4a11628f55a4df523b3ef858585604051808473ffffffffffffffffffffffffffffffffffffffff1673ffffffffffffffffffffffffffffffffffffffff1681526020018373ffffffffffffffffffffffffffffffffffffffff1673ffffffffffffffffffffffffffffffffffffffff168152602001828152602001935050505060405180910390a1505050505050565b6000806000905060008090505b6001805490508110156200265d578373ffffffffffffffffffffffffffffffffffffffff166002600083815260200190815260200160002060009054906101000a900473ffffffffffffffffffffffffffffffffffffffff1673ffffffffffffffffffffffffffffffffffffffff161480156200263f575084600182815481106200262b57fe5b906000526020600020906002020160010154145b156200264f57600191506200265d565b8080600101915050620025a4565b508091505092915050565b600080600090505b60018054905081101562002729578273ffffffffffffffffffffffffffffffffffffffff166002600083815260200190815260200160002060009054906101000a900473ffffffffffffffffffffffffffffffffffffffff1673ffffffffffffffffffffffffffffffffffffffff161480156200270b57508360018281548110620026f757fe5b906000526020600020906002020160010154145b156200271b57809150506200272b565b808060010191505062002670565b505b92915050565b6000808284019050838110156200274457fe5b8091505092915050565b6000828211156200275b57fe5b818303905092915050565b600073ffffffffffffffffffffffffffffffffffffffff168173ffffffffffffffffffffffffffffffffffffffff161415620027a157600080fd5b8073ffffffffffffffffffffffffffffffffffffffff166000809054906101000a900473ffffffffffffffffffffffffffffffffffffffff1673ffffffffffffffffffffffffffffffffffffffff167f8be0079c531659141344cd1fd0a4f28419497f9722a3daafe3b4186f6b6457e060405160405180910390a3806000806101000a81548173ffffffffffffffffffffffffffffffffffffffff021916908373ffffffffffffffffffffffffffffffffffffffff16021790555050565b60008190505b6001600680549050038110156200291657600660018201815481106200288757fe5b9060005260206000200160009054906101000a900473ffffffffffffffffffffffffffffffffffffffff1660068281548110620028c057fe5b9060005260206000200160006101000a81548173ffffffffffffffffffffffffffffffffffffffff021916908373ffffffffffffffffffffffffffffffffffffffff160217905550808060010191505062002865565b506006600160068054905003815481106200292d57fe5b9060005260206000200160006101000a81549073ffffffffffffffffffffffffffffffffffffffff0219169055600680548091906001900362002971919062002abb565b5050565b60008190505b600160048054905003811015620029ec57600460018201815481106200299d57fe5b906000526020600020906002020160048281548110620029b957fe5b9060005260206000209060020201600082015481600001556001820154816001015590505080806001019150506200297b565b5060046001600480549050038154811062002a0357fe5b906000526020600020906002020160008082016000905560018201600090555050600480548091906001900362002a3b919062002aea565b5050565b60405180606001604052806000815260200160008152602001600073ffffffffffffffffffffffffffffffffffffffff1681525090565b60405180606001604052806000815260200160008152602001600073ffffffffffffffffffffffffffffffffffffffff1681525090565b6113698062002b7a83390190565b81548183558181111562002ae55781836000526020600020918201910162002ae4919062002b1f565b5b505050565b81548183558181111562002b1a5760020281600202836000526020600020918201910162002b19919062002b47565b5b505050565b62002b4491905b8082111562002b4057600081600090555060010162002b26565b5090565b90565b62002b7691905b8082111562002b725760008082016000905560018201600090555060020162002b4e565b5090565b9056fe608060405234801561001057600080fd5b50604051611369380380611369833981810160405260c081101561003357600080fd5b810190808051906020019092919080519060200190929190805190602001909291908051906020019092919080519060200190929190805190602001909291905050508460ff1660028081111561008657fe5b101561009157600080fd5b83600160006101000a81548173ffffffffffffffffffffffffffffffffffffffff021916908373ffffffffffffffffffffffffffffffffffffffff16021790555042600281905550600060028111156100e657fe5b8560ff1614156100fd57620151808602955061013f565b6001600281111561010a57fe5b8560ff16141561012057610e108602955061013e565b60028081111561012c57fe5b8560ff16141561013d57603c860295505b5b5b85600254016003819055506001600a60006101000a81548160ff0219169083600181111561016957fe5b02179055508160066000018190555082600660010181905550806000806101000a81548173ffffffffffffffffffffffffffffffffffffffff021916908373ffffffffffffffffffffffffffffffffffffffff160217905550505050505050611192806101d76000396000f3fe6080604052600436106100dd5760003560e01c8063a86f74251161007f578063c458b65a11610059578063c458b65a146102bc578063c486456c146102e7578063d57bde7914610320578063efbf6e0b1461034b576100dd565b8063a86f742514610244578063bbafd3d414610276578063bdc0779a146102a5576100dd565b80633ccfd60b116100bb5780633ccfd60b1461019457806378f45340146101c357806384ddc67f146101ee5780638b7afe2e14610219576100dd565b80630ac298dc146100ec5780631998aeef146101435780633ba88ca114610165575b3480156100e957600080fd5b50005b3480156100f857600080fd5b50610101610376565b604051808273ffffffffffffffffffffffffffffffffffffffff1673ffffffffffffffffffffffffffffffffffffffff16815260200191505060405180910390f35b61014b6103a0565b604051808215151515815260200191505060405180910390f35b34801561017157600080fd5b5061017a61069f565b604051808215151515815260200191505060405180910390f35b3480156101a057600080fd5b506101a96107ac565b604051808215151515815260200191505060405180910390f35b3480156101cf57600080fd5b506101d86109f2565b6040518082815260200191505060405180910390f35b3480156101fa57600080fd5b506102036109f8565b6040518082815260200191505060405180910390f35b34801561022557600080fd5b5061022e610a3f565b6040518082815260200191505060405180910390f35b34801561025057600080fd5b50610259610aa1565b604051808381526020018281526020019250505060405180910390f35b34801561028257600080fd5b5061028b610ab3565b604051808215151515815260200191505060405180910390f35b3480156102b157600080fd5b506102ba610c4a565b005b3480156102c857600080fd5b506102d1611055565b6040518082815260200191505060405180910390f35b3480156102f357600080fd5b506102fc61105b565b6040518082600181111561030c57fe5b60ff16815260200191505060405180910390f35b34801561032c57600080fd5b5061033561106e565b6040518082815260200191505060405180910390f35b34801561035757600080fd5b50610360611074565b6040518082815260200191505060405180910390f35b6000600160009054906101000a900473ffffffffffffffffffffffffffffffffffffffff16905090565b60006003544211156103b157600080fd5b60045434600960003373ffffffffffffffffffffffffffffffffffffffff1673ffffffffffffffffffffffffffffffffffffffff168152602001908152602001600020540111610469576040517f08c379a00000000000000000000000000000000000000000000000000000000081526004018080602001828103825260208152602001807f596f752063616e2774206269642c204d616b652061206869676865722042696481525060200191505060405180910390fd5b33600560006101000a81548173ffffffffffffffffffffffffffffffffffffffff021916908373ffffffffffffffffffffffffffffffffffffffff16021790555034600960003373ffffffffffffffffffffffffffffffffffffffff1673ffffffffffffffffffffffffffffffffffffffff16815260200190815260200160002054016004819055506000600960003373ffffffffffffffffffffffffffffffffffffffff1673ffffffffffffffffffffffffffffffffffffffff1681526020019081526020016000205414156105a15760083390806001815401808255809150509060018203906000526020600020016000909192909190916101000a81548173ffffffffffffffffffffffffffffffffffffffff021916908373ffffffffffffffffffffffffffffffffffffffff160217905550505b34600960003373ffffffffffffffffffffffffffffffffffffffff1673ffffffffffffffffffffffffffffffffffffffff1681526020019081526020016000205401600960003373ffffffffffffffffffffffffffffffffffffffff1673ffffffffffffffffffffffffffffffffffffffff16815260200190815260200160002081905550600560009054906101000a900473ffffffffffffffffffffffffffffffffffffffff1673ffffffffffffffffffffffffffffffffffffffff167f0d993d4f8a84158f5329713d6d13ef54e77b325040c887c8b3e565cfd0cd3e216004546040518082815260200191505060405180910390a26001905090565b6000600160009054906101000a900473ffffffffffffffffffffffffffffffffffffffff1673ffffffffffffffffffffffffffffffffffffffff163373ffffffffffffffffffffffffffffffffffffffff16146106fb57600080fd5b60035442111561070a57600080fd5b6000600a60006101000a81548160ff0219169083600181111561072957fe5b0217905550426003819055507f06b08932edfa95ecf10e18f8e389c58332551bbfe5faf843ed9afb329fd14118426040518080602001838152602001828103825260118152602001807f41756374696f6e2043616e63656c6c65640000000000000000000000000000008152506020019250505060405180910390a16001905090565b60006003544211610808576040517f08c379a000000000000000000000000000000000000000000000000000000000815260040180806020018281038252602d815260200180611082602d913960400191505060405180910390fd5b600560009054906101000a900473ffffffffffffffffffffffffffffffffffffffff1673ffffffffffffffffffffffffffffffffffffffff163373ffffffffffffffffffffffffffffffffffffffff1614156108af576040517f08c379a00000000000000000000000000000000000000000000000000000000081526004018080602001828103825260278152602001806111146027913960400191505060405180910390fd5b6000600960003373ffffffffffffffffffffffffffffffffffffffff1673ffffffffffffffffffffffffffffffffffffffff1681526020019081526020016000205490506000600960003373ffffffffffffffffffffffffffffffffffffffff1673ffffffffffffffffffffffffffffffffffffffff168152602001908152602001600020819055503373ffffffffffffffffffffffffffffffffffffffff166108fc829081150290604051600060405180830381858888f1935050505015801561097e573d6000803e3d6000fd5b507f2f174ca282119315c59efaf21147aef438581dabdeb498198ae28964373dd8bc3382604051808373ffffffffffffffffffffffffffffffffffffffff1673ffffffffffffffffffffffffffffffffffffffff1681526020018281526020019250505060405180910390a1600191505090565b60025481565b6000600960003373ffffffffffffffffffffffffffffffffffffffff1673ffffffffffffffffffffffffffffffffffffffff16815260200190815260200160002054905090565b6000600160009054906101000a900473ffffffffffffffffffffffffffffffffffffffff1673ffffffffffffffffffffffffffffffffffffffff163373ffffffffffffffffffffffffffffffffffffffff1614610a9b57600080fd5b47905090565b60068060000154908060010154905082565b6000600160009054906101000a900473ffffffffffffffffffffffffffffffffffffffff1673ffffffffffffffffffffffffffffffffffffffff163373ffffffffffffffffffffffffffffffffffffffff1614610b0f57600080fd5b6003544211610b69576040517f08c379a00000000000000000000000000000000000000000000000000000000081526004018080602001828103825260398152602001806110db6039913960400191505060405180910390fd5b60008090505b600880549050811015610c095760006009600060088481548110610b8f57fe5b9060005260206000200160009054906101000a900473ffffffffffffffffffffffffffffffffffffffff1673ffffffffffffffffffffffffffffffffffffffff1673ffffffffffffffffffffffffffffffffffffffff1681526020019081526020016000205414610bfc57fe5b8080600101915050610b6f565b506000600160009054906101000a900473ffffffffffffffffffffffffffffffffffffffff1690508073ffffffffffffffffffffffffffffffffffffffff16ff5b6003544211610ca4576040517f08c379a000000000000000000000000000000000000000000000000000000000815260040180806020018281038252602c8152602001806110af602c913960400191505060405180910390fd5b600560009054906101000a900473ffffffffffffffffffffffffffffffffffffffff1673ffffffffffffffffffffffffffffffffffffffff163373ffffffffffffffffffffffffffffffffffffffff1614610d4a576040517f08c379a000000000000000000000000000000000000000000000000000000000815260040180806020018281038252602381526020018061113b6023913960400191505060405180910390fd5b6000600960003373ffffffffffffffffffffffffffffffffffffffff1673ffffffffffffffffffffffffffffffffffffffff1681526020019081526020016000205490506000600960003373ffffffffffffffffffffffffffffffffffffffff1673ffffffffffffffffffffffffffffffffffffffff168152602001908152602001600020819055506000600160009054906101000a900473ffffffffffffffffffffffffffffffffffffffff1690508073ffffffffffffffffffffffffffffffffffffffff166108fc839081150290604051600060405180830381858888f19350505050158015610e40573d6000803e3d6000fd5b506000809054906101000a900473ffffffffffffffffffffffffffffffffffffffff1673ffffffffffffffffffffffffffffffffffffffff1663f31281d730600160009054906101000a900473ffffffffffffffffffffffffffffffffffffffff16600560009054906101000a900473ffffffffffffffffffffffffffffffffffffffff166006600101546040518563ffffffff1660e01b8152600401808573ffffffffffffffffffffffffffffffffffffffff1673ffffffffffffffffffffffffffffffffffffffff1681526020018473ffffffffffffffffffffffffffffffffffffffff1673ffffffffffffffffffffffffffffffffffffffff1681526020018373ffffffffffffffffffffffffffffffffffffffff1673ffffffffffffffffffffffffffffffffffffffff168152602001828152602001945050505050600060405180830381600087803b158015610f9a57600080fd5b505af1158015610fae573d6000803e3d6000fd5b505050507f8ed7db30df47fbd87811a5e8a95a94838f0c0241263d9a1865d6a2a3e10516e2338284604051808473ffffffffffffffffffffffffffffffffffffffff1673ffffffffffffffffffffffffffffffffffffffff1681526020018373ffffffffffffffffffffffffffffffffffffffff1673ffffffffffffffffffffffffffffffffffffffff168152602001828152602001935050505060405180910390a15050565b60035481565b600a60009054906101000a900460ff1681565b60045481565b600060088054905090509056fe596f752063616e27742077697468647261772c207468652061756374696f6e206973207374696c6c206f70656e596f752063616e277420627579204361722c207468652061756374696f6e206973207374696c6c206f70656e596f752063616e27742064657374727563742074686520636f6e74726163742c5468652061756374696f6e206973207374696c6c206f70656e596f752063616e27742077697468647261772c20596f7520776f6e207468652041756374696f6e4f6e6c7920686967686573744269646465722063616e20627579207468652063617264a265627a7a72315820463f0ec6b7a829e74c1f5471f5468c1c17af55d30c9bc980dbf221e212edd76364736f6c634300051000324f6e6c7920436f6e74726163742043616e20446f20746865205472616e73666572a265627a7a72315820193d2afa179dc0bfc6244296a9d299a983110364e0803a5c72a70ee14ba4edf564736f6c63430005100032",
  "source": "pragma solidity >=0.5.0 <0.6.0;\n\nimport \"./ownable.sol\";\nimport \"./Auction.sol\";\nimport \"./safemath.sol\";\n\ncontract Cardbank is Ownable{\n    using SafeMath for uint256;\n    event Transfer(address _from, address _to, uint _tokenId);\n\n    struct Card {\n        uint tokenid;\n        uint cardid;\n    }\n\n    //All cards are stored here\n    Card[] public cards;\n\n\n    mapping (uint => address) cardOwner;\n    mapping (address => uint) ownerCardCount;\n\n    //All Auction cards are stored here\n    Card[] private CardsAtAuction;\n    mapping (address => uint) auctionCardOwnerToId;\n\n    // All Auction contract address are stored here\n    address[] newContracts;\n    // Trading offer\n    struct TradingOffer{\n        uint cardid;\n        uint forCardid;\n        address sender;\n    }\n    uint private offerNumber = 1;\n    uint private offerAccepted = uint(0);\n    mapping(uint => TradingOffer) private offNumTradingOffer;\n     // Selling offer\n    struct sellingOffer{\n        uint cardid;\n        uint etherValue; // Wei\n        address sender;\n    }\n    uint private sellingOfferNumber = 1;\n    uint private SellingOfferAccepted = uint(0);\n    mapping(uint => sellingOffer) private SellOffNumSellingOffer;\n\n    // Allow you to create a selling offer _etherValue is in wei\n    function _initiateSellingOffer( address _sender, uint _cardId, uint _etherValue) public\n    {\n        require(cardOwnedByUser(_cardId, _sender) == true, \"You don't Own that card\");\n        sellingOffer memory offer;\n        offer.cardid = _cardId;\n        offer.etherValue = _etherValue;\n        offer.sender = _sender;\n        SellOffNumSellingOffer[sellingOfferNumber++] = offer;\n    }\n\n    // Will give you all the valid selling card offers\n    function sellingOffers() external view returns(uint[] memory , uint[] memory, uint[] memory ) {\n        uint[] memory _cardId = new uint[](sellingOfferNumber-1-SellingOfferAccepted);\n        uint[] memory _cost = new uint[](sellingOfferNumber-1-SellingOfferAccepted);\n        uint[] memory _offerNumber = new uint[](sellingOfferNumber-1-SellingOfferAccepted);\n        uint counter = 0;\n        for (uint i = 1; i < sellingOfferNumber; i++) {\n            if(SellOffNumSellingOffer[i].cardid != uint(0)){\n            _cardId[counter] = SellOffNumSellingOffer[i].cardid;\n            _cost[counter] = SellOffNumSellingOffer[i].etherValue;\n            _offerNumber[counter] = i;\n            counter++;\n            }\n        }\n        return (_cardId, _cost,_offerNumber);\n    }\n\n    // Allow you to accept the selling offer\n    function acceptSellingOffer(uint _offerNumber) public payable returns (bool){\n        sellingOffer memory offer = SellOffNumSellingOffer[_offerNumber];\n        require(offer.etherValue ==msg.value, \"Not Enough Ether\");\n        require(cardOwnedByUser(offer.cardid, offer.sender) == true, \"Trader don't Own that card now\");\n\n        cardOwner[cardUniqueID(offer.cardid, offer.sender)] = msg.sender;\n        ownerCardCount[msg.sender] = ownerCardCount[msg.sender].add(1);\n        ownerCardCount[offer.sender] = ownerCardCount[offer.sender].sub(1);\n        address payable offerHolder = address(uint160(offer.sender));\n        offerHolder.transfer(offer.etherValue);\n        SellingOfferAccepted.add(1);\n        delete SellOffNumSellingOffer[_offerNumber];\n    }\n\n    // Allow you to create a trading offer\n    function _initiateTradingOffer( address _sender, uint _tradeCard, uint _forCard) public\n    {\n        require(cardOwnedByUser(_tradeCard, _sender) == true, \"You don't Own that card\");\n        TradingOffer memory offer;\n        offer.cardid = _tradeCard;\n        offer.forCardid = _forCard;\n        offer.sender = _sender;\n        offNumTradingOffer[offerNumber++] = offer;\n    }\n\n    // Will give you all the valid trading card offers\n    function TradingOffers() external view returns(uint[] memory , uint[] memory, uint[] memory ) {\n        uint[] memory _cardId = new uint[](offerNumber-1-offerAccepted);\n        uint[] memory _forCardId = new uint[](offerNumber-1-offerAccepted);\n        uint[] memory _offerNumber = new uint[](offerNumber-1-offerAccepted);\n        uint counter = 0;\n        for (uint i = 1; i < offerNumber; i++) {\n            if(offNumTradingOffer[i].cardid != uint(0)){\n            _cardId[counter] = offNumTradingOffer[i].cardid;\n            _forCardId[counter] = offNumTradingOffer[i].forCardid;\n            _offerNumber[counter] = i;\n            counter++;\n            }\n        }\n        return (_cardId, _forCardId,_offerNumber);\n    }\n\n    // Allow you to accept the trading offer\n    function acceptTradingOffer(uint _offerNumber) external  {\n        TradingOffer memory offer = offNumTradingOffer[_offerNumber];\n        require(cardOwnedByUser(offer.forCardid, msg.sender) == true, \"You don't Own that card\");\n        require(cardOwnedByUser(offer.cardid, offer.sender) == true, \"Trader don't Own that card now\");\n\n        cardOwner[cardUniqueID(offer.cardid, offer.sender)] = msg.sender;\n        cardOwner[cardUniqueID(offer.forCardid, msg.sender)] = offer.sender;\n        offerAccepted.add(1);\n        delete offNumTradingOffer[_offerNumber];\n    }\n\n    // Tranfer a card to a friend\n    function transferACardToFriend(uint _cardId, address _to) external  {\n        require(cardOwnedByUser(_cardId, msg.sender) == true, \"You don't Own that card\");\n        cardOwner[cardUniqueID(_cardId, msg.sender)] = _to;\n        ownerCardCount[_to] = ownerCardCount[_to].add(1);\n        ownerCardCount[msg.sender] = ownerCardCount[msg.sender].sub(1);\n    }\n\n    function _createNewCard(uint _tokenid, uint _cardid ) internal{\n        uint id = cards.push(Card(_tokenid, _cardid)) -1;\n        cardOwner[id] = msg.sender;\n        ownerCardCount[msg.sender]++;\n    }\n\n\n    //Returns an array of card IDs owned by an account\n    function getCardsByOwner(address _owner) external view returns (uint[] memory) {\n        uint[] memory result = new uint[](ownerCardCount[_owner]);\n        uint counter = 0;\n        for (uint i = 0; i < cards.length; i++) {\n          if (cardOwner[i] == _owner) {\n            result[counter] = cards[i].cardid;\n            counter++;\n          }\n        }\n        return result;\n    }\n    //Returns an array of token IDs owned by an account\n    function getCardsTokenByOwner(address _owner) external view returns (uint[] memory) {\n        uint[] memory result = new uint[](ownerCardCount[_owner]);\n        uint counter = 0;\n        for (uint i = 0; i < cards.length; i++) {\n          if (cardOwner[i] == _owner) {\n            result[counter] = cards[i].tokenid;\n            counter++;\n          }\n        }\n        return result;\n    }\n\n\n    // Return the cards on Auction\n    function cardsOnAuction() external view returns (uint[] memory) {\n        uint[] memory result = new uint[](CardsAtAuction.length);\n                uint counter = 0;\n                for (uint i = 0; i < CardsAtAuction.length; i++) {\n                    if(CardsAtAuction[i].cardid != uint(-1))\n                    {\n                        result[counter] = CardsAtAuction[i].cardid;\n                        counter++;\n                    }\n                }\n                return result;\n    }\n\n    // Sends the index of card of particular owner\n    function cardUniqueID(uint _CardId, address _owner) private view returns (uint ID)\n    {\n\n       for (uint i = 0; i < cards.length; i++) {\n          if (cardOwner[i] == _owner && cards[i].cardid == _CardId) {\n            return i;\n          }\n        }\n    }\n\n    // checks if card is owner by the user\n    function cardOwnedByUser(uint _CardId, address _owner) private view returns (bool found)\n    {\n        bool foundID = false;\n        for (uint i = 0; i < cards.length; i++) {\n          if (cardOwner[i] == _owner && cards[i].cardid == _CardId) {\n            foundID = true;break;\n          }\n        }\n        return foundID;\n\n    }\n\n    // Create Auction Contract\n    function createAuctionContract(uint _auctionTime, uint8 timeFormat , address _owner, uint _CardId, uint _TokenId) public{\n        require(cardOwnedByUser(_CardId, _owner) == true, \"You don't Own that card\");\n        address newContract = address(new MyAuction(_auctionTime, timeFormat , _owner, _CardId, _TokenId, address(this)));\n        uint id = CardsAtAuction.push(Card(_TokenId, _CardId)) - 1;\n        auctionCardOwnerToId[_owner] = id;\n        newContracts.push(newContract);\n    }\n\n    // Removes address from the newContract array\n    function removeContracAddress(uint index) internal\n    {\n        for (uint i = index; i<newContracts.length-1; i++){\n            newContracts[i] = newContracts[i+1];\n        }\n        delete newContracts[newContracts.length-1];\n        newContracts.length--;\n    }\n\n    // Removes the Cards from the Auction\n    function removeCardFromAuction(uint index) private\n    {\n        for (uint i = index; i<CardsAtAuction.length-1; i++){\n            CardsAtAuction[i] = CardsAtAuction[i+1];\n        }\n        delete CardsAtAuction[CardsAtAuction.length-1];\n        CardsAtAuction.length--;\n    }\n\n    // Give Addresses of contract\n    function giveMeAddresses() public view returns(address[] memory)\n    {\n        address[] memory result = new address[](newContracts.length);\n                uint counter = 0;\n                for (uint i = 0; i < newContracts.length; i++) {\n                        result[counter++] = newContracts[i];\n                }\n\n                return result;\n    }\n\n    // transfer card only via created auction contract\n    function _transfer(address contractaddress, address _from, address _to, uint256 _CardId) external {\n        bool flagAddressFound = false;\n        uint i;\n        for (i = 0; i < newContracts.length; i++) {\n            if(newContracts[i] == contractaddress)\n                {\n                    flagAddressFound = true;\n                    break;\n                }\n        }\n        require(flagAddressFound==true, \"Only Contract Can Do the Transfer\");\n\n        // need to check _transfer only happens from\n        ownerCardCount[_to] = ownerCardCount[_to].add(1);\n        ownerCardCount[_from] = ownerCardCount[_from].sub(1);\n\n        cardOwner[cardUniqueID(_CardId, _from)] = _to;\n        CardsAtAuction[auctionCardOwnerToId[_from]].cardid = uint(-1);\n        CardsAtAuction[auctionCardOwnerToId[_from]].tokenid = uint(-1);\n\n        removeContracAddress(i);\n\n        removeCardFromAuction(auctionCardOwnerToId[_from]);\n        emit Transfer(_from, _to, _CardId);\n    }\n\n}\n\n",
  "sourcePath": "/Users/mohitsingh/Documents/COLORADO STATE UNIVERSITY/Block Chain/BlockChain Project/trial/contracts/cardbank.sol",
  "compiler": {
    "name": "solc",
    "version": "0.5.16+commit.9c3226ce.Emscripten.clang"
  },
  "schemaVersion": "3.0.23",
  "updatedAt": "2020-05-03T02:30:41.182Z",
  "devdoc": {
    "methods": {
      "isOwner()": {
        "return": "true if `msg.sender` is the owner of the contract."
      },
      "owner()": {
        "return": "the address of the owner."
      },
      "renounceOwnership()": {
        "details": "Allows the current owner to relinquish control of the contract."
      },
      "transferOwnership(address)": {
        "details": "Allows the current owner to transfer control of the contract to a newOwner.",
        "params": {
          "newOwner": "The address to transfer ownership to."
        }
      }
    }
  },
  "userdoc": {
    "methods": {
      "renounceOwnership()": {
        "notice": "Renouncing to ownership will leave the contract without an owner. It will not be possible to call the functions with the `onlyOwner` modifier anymore."
      }
    }
  }
}