{
  "contractName": "MyAuction",
  "abi": [
    {
      "inputs": [
        {
          "internalType": "uint256",
          "name": "_auctionTime",
          "type": "uint256"
        },
        {
          "internalType": "uint8",
          "name": "timeFormat",
          "type": "uint8"
        },
        {
          "internalType": "address",
          "name": "_owner",
          "type": "address"
        },
        {
          "internalType": "uint256",
          "name": "_CardId",
          "type": "uint256"
        },
        {
          "internalType": "uint256",
          "name": "_TokenId",
          "type": "uint256"
        },
        {
          "internalType": "address",
          "name": "MainContractAddress",
          "type": "address"
        }
      ],
      "payable": false,
      "stateMutability": "nonpayable",
      "type": "constructor"
    },
    {
      "anonymous": false,
      "inputs": [
        {
          "indexed": true,
          "internalType": "address",
          "name": "highestBidder",
          "type": "address"
        },
        {
          "indexed": false,
          "internalType": "uint256",
          "name": "highestBid",
          "type": "uint256"
        }
      ],
      "name": "BidEvent",
      "type": "event"
    },
    {
      "anonymous": false,
      "inputs": [
        {
          "indexed": false,
          "internalType": "string",
          "name": "message",
          "type": "string"
        },
        {
          "indexed": false,
          "internalType": "uint256",
          "name": "time",
          "type": "uint256"
        }
      ],
      "name": "CanceledEvent",
      "type": "event"
    },
    {
      "anonymous": false,
      "inputs": [
        {
          "indexed": false,
          "internalType": "address",
          "name": "_from",
          "type": "address"
        },
        {
          "indexed": false,
          "internalType": "address",
          "name": "_to",
          "type": "address"
        },
        {
          "indexed": false,
          "internalType": "uint256",
          "name": "amount",
          "type": "uint256"
        }
      ],
      "name": "Payment",
      "type": "event"
    },
    {
      "anonymous": false,
      "inputs": [
        {
          "indexed": false,
          "internalType": "address",
          "name": "withdrawer",
          "type": "address"
        },
        {
          "indexed": false,
          "internalType": "uint256",
          "name": "amount",
          "type": "uint256"
        }
      ],
      "name": "WithdrawalEvent",
      "type": "event"
    },
    {
      "payable": false,
      "stateMutability": "nonpayable",
      "type": "fallback"
    },
    {
      "constant": true,
      "inputs": [],
      "name": "MyCard",
      "outputs": [
        {
          "internalType": "uint256",
          "name": "tokenid",
          "type": "uint256"
        },
        {
          "internalType": "uint256",
          "name": "cardid",
          "type": "uint256"
        }
      ],
      "payable": false,
      "stateMutability": "view",
      "type": "function"
    },
    {
      "constant": true,
      "inputs": [],
      "name": "STATE",
      "outputs": [
        {
          "internalType": "enum Auction.auction_state",
          "name": "",
          "type": "uint8"
        }
      ],
      "payable": false,
      "stateMutability": "view",
      "type": "function"
    },
    {
      "constant": true,
      "inputs": [],
      "name": "auction_end",
      "outputs": [
        {
          "internalType": "uint256",
          "name": "",
          "type": "uint256"
        }
      ],
      "payable": false,
      "stateMutability": "view",
      "type": "function"
    },
    {
      "constant": true,
      "inputs": [],
      "name": "auction_start",
      "outputs": [
        {
          "internalType": "uint256",
          "name": "",
          "type": "uint256"
        }
      ],
      "payable": false,
      "stateMutability": "view",
      "type": "function"
    },
    {
      "constant": true,
      "inputs": [],
      "name": "highestBid",
      "outputs": [
        {
          "internalType": "uint256",
          "name": "",
          "type": "uint256"
        }
      ],
      "payable": false,
      "stateMutability": "view",
      "type": "function"
    },
    {
      "constant": false,
      "inputs": [],
      "name": "bid",
      "outputs": [
        {
          "internalType": "bool",
          "name": "",
          "type": "bool"
        }
      ],
      "payable": true,
      "stateMutability": "payable",
      "type": "function"
    },
    {
      "constant": true,
      "inputs": [],
      "name": "getMyBid",
      "outputs": [
        {
          "internalType": "uint256",
          "name": "",
          "type": "uint256"
        }
      ],
      "payable": false,
      "stateMutability": "view",
      "type": "function"
    },
    {
      "constant": true,
      "inputs": [],
      "name": "contractBalance",
      "outputs": [
        {
          "internalType": "uint256",
          "name": "",
          "type": "uint256"
        }
      ],
      "payable": false,
      "stateMutability": "view",
      "type": "function"
    },
    {
      "constant": false,
      "inputs": [],
      "name": "cancel_auction",
      "outputs": [
        {
          "internalType": "bool",
          "name": "",
          "type": "bool"
        }
      ],
      "payable": false,
      "stateMutability": "nonpayable",
      "type": "function"
    },
    {
      "constant": false,
      "inputs": [],
      "name": "destruct_auction",
      "outputs": [
        {
          "internalType": "bool",
          "name": "",
          "type": "bool"
        }
      ],
      "payable": false,
      "stateMutability": "nonpayable",
      "type": "function"
    },
    {
      "constant": false,
      "inputs": [],
      "name": "withdraw",
      "outputs": [
        {
          "internalType": "bool",
          "name": "",
          "type": "bool"
        }
      ],
      "payable": false,
      "stateMutability": "nonpayable",
      "type": "function"
    },
    {
      "constant": false,
      "inputs": [],
      "name": "buyCard",
      "outputs": [],
      "payable": false,
      "stateMutability": "nonpayable",
      "type": "function"
    },
    {
      "constant": true,
      "inputs": [],
      "name": "numberOfBidders",
      "outputs": [
        {
          "internalType": "uint256",
          "name": "",
          "type": "uint256"
        }
      ],
      "payable": false,
      "stateMutability": "view",
      "type": "function"
    },
    {
      "constant": true,
      "inputs": [],
      "name": "get_owner",
      "outputs": [
        {
          "internalType": "address",
          "name": "",
          "type": "address"
        }
      ],
      "payable": false,
      "stateMutability": "view",
      "type": "function"
    }
  ],
  "bytecode": "0x608060405234801561001057600080fd5b50604051611369380380611369833981810160405260c081101561003357600080fd5b810190808051906020019092919080519060200190929190805190602001909291908051906020019092919080519060200190929190805190602001909291905050508460ff1660028081111561008657fe5b101561009157600080fd5b83600160006101000a81548173ffffffffffffffffffffffffffffffffffffffff021916908373ffffffffffffffffffffffffffffffffffffffff16021790555042600281905550600060028111156100e657fe5b8560ff1614156100fd57620151808602955061013f565b6001600281111561010a57fe5b8560ff16141561012057610e108602955061013e565b60028081111561012c57fe5b8560ff16141561013d57603c860295505b5b5b85600254016003819055506001600a60006101000a81548160ff0219169083600181111561016957fe5b02179055508160066000018190555082600660010181905550806000806101000a81548173ffffffffffffffffffffffffffffffffffffffff021916908373ffffffffffffffffffffffffffffffffffffffff160217905550505050505050611192806101d76000396000f3fe6080604052600436106100dd5760003560e01c8063a86f74251161007f578063c458b65a11610059578063c458b65a146102bc578063c486456c146102e7578063d57bde7914610320578063efbf6e0b1461034b576100dd565b8063a86f742514610244578063bbafd3d414610276578063bdc0779a146102a5576100dd565b80633ccfd60b116100bb5780633ccfd60b1461019457806378f45340146101c357806384ddc67f146101ee5780638b7afe2e14610219576100dd565b80630ac298dc146100ec5780631998aeef146101435780633ba88ca114610165575b3480156100e957600080fd5b50005b3480156100f857600080fd5b50610101610376565b604051808273ffffffffffffffffffffffffffffffffffffffff1673ffffffffffffffffffffffffffffffffffffffff16815260200191505060405180910390f35b61014b6103a0565b604051808215151515815260200191505060405180910390f35b34801561017157600080fd5b5061017a61069f565b604051808215151515815260200191505060405180910390f35b3480156101a057600080fd5b506101a96107ac565b604051808215151515815260200191505060405180910390f35b3480156101cf57600080fd5b506101d86109f2565b6040518082815260200191505060405180910390f35b3480156101fa57600080fd5b506102036109f8565b6040518082815260200191505060405180910390f35b34801561022557600080fd5b5061022e610a3f565b6040518082815260200191505060405180910390f35b34801561025057600080fd5b50610259610aa1565b604051808381526020018281526020019250505060405180910390f35b34801561028257600080fd5b5061028b610ab3565b604051808215151515815260200191505060405180910390f35b3480156102b157600080fd5b506102ba610c4a565b005b3480156102c857600080fd5b506102d1611055565b6040518082815260200191505060405180910390f35b3480156102f357600080fd5b506102fc61105b565b6040518082600181111561030c57fe5b60ff16815260200191505060405180910390f35b34801561032c57600080fd5b5061033561106e565b6040518082815260200191505060405180910390f35b34801561035757600080fd5b50610360611074565b6040518082815260200191505060405180910390f35b6000600160009054906101000a900473ffffffffffffffffffffffffffffffffffffffff16905090565b60006003544211156103b157600080fd5b60045434600960003373ffffffffffffffffffffffffffffffffffffffff1673ffffffffffffffffffffffffffffffffffffffff168152602001908152602001600020540111610469576040517f08c379a00000000000000000000000000000000000000000000000000000000081526004018080602001828103825260208152602001807f596f752063616e2774206269642c204d616b652061206869676865722042696481525060200191505060405180910390fd5b33600560006101000a81548173ffffffffffffffffffffffffffffffffffffffff021916908373ffffffffffffffffffffffffffffffffffffffff16021790555034600960003373ffffffffffffffffffffffffffffffffffffffff1673ffffffffffffffffffffffffffffffffffffffff16815260200190815260200160002054016004819055506000600960003373ffffffffffffffffffffffffffffffffffffffff1673ffffffffffffffffffffffffffffffffffffffff1681526020019081526020016000205414156105a15760083390806001815401808255809150509060018203906000526020600020016000909192909190916101000a81548173ffffffffffffffffffffffffffffffffffffffff021916908373ffffffffffffffffffffffffffffffffffffffff160217905550505b34600960003373ffffffffffffffffffffffffffffffffffffffff1673ffffffffffffffffffffffffffffffffffffffff1681526020019081526020016000205401600960003373ffffffffffffffffffffffffffffffffffffffff1673ffffffffffffffffffffffffffffffffffffffff16815260200190815260200160002081905550600560009054906101000a900473ffffffffffffffffffffffffffffffffffffffff1673ffffffffffffffffffffffffffffffffffffffff167f0d993d4f8a84158f5329713d6d13ef54e77b325040c887c8b3e565cfd0cd3e216004546040518082815260200191505060405180910390a26001905090565b6000600160009054906101000a900473ffffffffffffffffffffffffffffffffffffffff1673ffffffffffffffffffffffffffffffffffffffff163373ffffffffffffffffffffffffffffffffffffffff16146106fb57600080fd5b60035442111561070a57600080fd5b6000600a60006101000a81548160ff0219169083600181111561072957fe5b0217905550426003819055507f06b08932edfa95ecf10e18f8e389c58332551bbfe5faf843ed9afb329fd14118426040518080602001838152602001828103825260118152602001807f41756374696f6e2043616e63656c6c65640000000000000000000000000000008152506020019250505060405180910390a16001905090565b60006003544211610808576040517f08c379a000000000000000000000000000000000000000000000000000000000815260040180806020018281038252602d815260200180611082602d913960400191505060405180910390fd5b600560009054906101000a900473ffffffffffffffffffffffffffffffffffffffff1673ffffffffffffffffffffffffffffffffffffffff163373ffffffffffffffffffffffffffffffffffffffff1614156108af576040517f08c379a00000000000000000000000000000000000000000000000000000000081526004018080602001828103825260278152602001806111146027913960400191505060405180910390fd5b6000600960003373ffffffffffffffffffffffffffffffffffffffff1673ffffffffffffffffffffffffffffffffffffffff1681526020019081526020016000205490506000600960003373ffffffffffffffffffffffffffffffffffffffff1673ffffffffffffffffffffffffffffffffffffffff168152602001908152602001600020819055503373ffffffffffffffffffffffffffffffffffffffff166108fc829081150290604051600060405180830381858888f1935050505015801561097e573d6000803e3d6000fd5b507f2f174ca282119315c59efaf21147aef438581dabdeb498198ae28964373dd8bc3382604051808373ffffffffffffffffffffffffffffffffffffffff1673ffffffffffffffffffffffffffffffffffffffff1681526020018281526020019250505060405180910390a1600191505090565b60025481565b6000600960003373ffffffffffffffffffffffffffffffffffffffff1673ffffffffffffffffffffffffffffffffffffffff16815260200190815260200160002054905090565b6000600160009054906101000a900473ffffffffffffffffffffffffffffffffffffffff1673ffffffffffffffffffffffffffffffffffffffff163373ffffffffffffffffffffffffffffffffffffffff1614610a9b57600080fd5b47905090565b60068060000154908060010154905082565b6000600160009054906101000a900473ffffffffffffffffffffffffffffffffffffffff1673ffffffffffffffffffffffffffffffffffffffff163373ffffffffffffffffffffffffffffffffffffffff1614610b0f57600080fd5b6003544211610b69576040517f08c379a00000000000000000000000000000000000000000000000000000000081526004018080602001828103825260398152602001806110db6039913960400191505060405180910390fd5b60008090505b600880549050811015610c095760006009600060088481548110610b8f57fe5b9060005260206000200160009054906101000a900473ffffffffffffffffffffffffffffffffffffffff1673ffffffffffffffffffffffffffffffffffffffff1673ffffffffffffffffffffffffffffffffffffffff1681526020019081526020016000205414610bfc57fe5b8080600101915050610b6f565b506000600160009054906101000a900473ffffffffffffffffffffffffffffffffffffffff1690508073ffffffffffffffffffffffffffffffffffffffff16ff5b6003544211610ca4576040517f08c379a000000000000000000000000000000000000000000000000000000000815260040180806020018281038252602c8152602001806110af602c913960400191505060405180910390fd5b600560009054906101000a900473ffffffffffffffffffffffffffffffffffffffff1673ffffffffffffffffffffffffffffffffffffffff163373ffffffffffffffffffffffffffffffffffffffff1614610d4a576040517f08c379a000000000000000000000000000000000000000000000000000000000815260040180806020018281038252602381526020018061113b6023913960400191505060405180910390fd5b6000600960003373ffffffffffffffffffffffffffffffffffffffff1673ffffffffffffffffffffffffffffffffffffffff1681526020019081526020016000205490506000600960003373ffffffffffffffffffffffffffffffffffffffff1673ffffffffffffffffffffffffffffffffffffffff168152602001908152602001600020819055506000600160009054906101000a900473ffffffffffffffffffffffffffffffffffffffff1690508073ffffffffffffffffffffffffffffffffffffffff166108fc839081150290604051600060405180830381858888f19350505050158015610e40573d6000803e3d6000fd5b506000809054906101000a900473ffffffffffffffffffffffffffffffffffffffff1673ffffffffffffffffffffffffffffffffffffffff1663f31281d730600160009054906101000a900473ffffffffffffffffffffffffffffffffffffffff16600560009054906101000a900473ffffffffffffffffffffffffffffffffffffffff166006600101546040518563ffffffff1660e01b8152600401808573ffffffffffffffffffffffffffffffffffffffff1673ffffffffffffffffffffffffffffffffffffffff1681526020018473ffffffffffffffffffffffffffffffffffffffff1673ffffffffffffffffffffffffffffffffffffffff1681526020018373ffffffffffffffffffffffffffffffffffffffff1673ffffffffffffffffffffffffffffffffffffffff168152602001828152602001945050505050600060405180830381600087803b158015610f9a57600080fd5b505af1158015610fae573d6000803e3d6000fd5b505050507f8ed7db30df47fbd87811a5e8a95a94838f0c0241263d9a1865d6a2a3e10516e2338284604051808473ffffffffffffffffffffffffffffffffffffffff1673ffffffffffffffffffffffffffffffffffffffff1681526020018373ffffffffffffffffffffffffffffffffffffffff1673ffffffffffffffffffffffffffffffffffffffff168152602001828152602001935050505060405180910390a15050565b60035481565b600a60009054906101000a900460ff1681565b60045481565b600060088054905090509056fe596f752063616e27742077697468647261772c207468652061756374696f6e206973207374696c6c206f70656e596f752063616e277420627579204361722c207468652061756374696f6e206973207374696c6c206f70656e596f752063616e27742064657374727563742074686520636f6e74726163742c5468652061756374696f6e206973207374696c6c206f70656e596f752063616e27742077697468647261772c20596f7520776f6e207468652041756374696f6e4f6e6c7920686967686573744269646465722063616e20627579207468652063617264a265627a7a72315820fb7e10f0c66fa63ff3663e71bb748445163bd75856c76dc1a3cc192122dea63164736f6c63430005100032",
  "source": "pragma solidity ^0.5.16;\nimport \"./cardbank.sol\";\n\ncontract Auction{\n    Cardbank ContractAddress;\n    address internal auction_owner;\n    uint256 public auction_start;\n    uint256 public auction_end;\n    uint256 public highestBid;\n    address internal highestBidder;\n\n    enum time_line{\n        DAY, HOUR, MIN\n    }\n\n    enum auction_state{\n        CANCELLED,STARTED\n    }\n\n    struct card {\n        uint tokenid;\n        uint cardid;\n    }\n\n    card public MyCard;\n    address[] bidders;\n\n    mapping(address => uint) internal bids;\n\n    auction_state public STATE;\n\n    modifier an_ongoing_auction(){\n        require(now <= auction_end);\n        _;\n    }\n\n    modifier only_owner(){\n        require(msg.sender==auction_owner);\n        _;\n    }\n\n    function bid() public payable returns (bool){}\n    function withdraw() public returns (bool){}\n    function cancel_auction() external returns (bool){}\n\n    event BidEvent(address indexed highestBidder, uint256 highestBid);\n    event WithdrawalEvent(address withdrawer, uint256 amount);\n    event CanceledEvent(string message, uint256 time);\n    event Payment(address _from, address _to, uint amount);\n\n}\n\n\ncontract MyAuction is Auction{\n\n\n    function () external\n    {\n\n    }\n\n    constructor (uint _auctionTime, uint8 timeFormat , address _owner, uint _CardId, uint _TokenId, address MainContractAddress) public {\n        require(uint(time_line.MIN) >= timeFormat);\n        // need to write funtion to check if card is owned by the owner\n        auction_owner = _owner;\n        auction_start=now;\n\n        if(timeFormat == uint(time_line.DAY))\n        {\n            _auctionTime = _auctionTime * 1 days;\n        }else\n        if(timeFormat == uint(time_line.HOUR))\n        {\n            _auctionTime = _auctionTime * 1 hours;\n        }else\n        if(timeFormat == uint(time_line.MIN))\n        {\n            _auctionTime = _auctionTime * 1 minutes;\n        }\n\n        auction_end = auction_start + _auctionTime;\n        STATE=auction_state.STARTED;\n        MyCard.tokenid = _TokenId;\n        MyCard.cardid = _CardId;\n\n        ContractAddress = Cardbank(MainContractAddress);\n\n    }\n\n\n    function bid() public payable an_ongoing_auction returns (bool){\n        require(bids[msg.sender] + msg.value > highestBid,\"You can't bid, Make a higher Bid\");\n        highestBidder = msg.sender;\n        highestBid = bids[msg.sender] + msg.value;\n        if(bids[msg.sender]==0)\n        {\n            bidders.push(msg.sender);\n        }\n        bids[msg.sender] =  bids[msg.sender] + msg.value;\n\n        emit BidEvent(highestBidder,  highestBid);\n\n        return true;\n    }\n\n    function getMyBid() public view returns (uint){\n        return bids[msg.sender];\n    }\n\n    function contractBalance() public view returns(uint){\n        require(msg.sender == auction_owner);\n        return address(this).balance;\n    }\n\n    function cancel_auction() external only_owner an_ongoing_auction returns (bool){\n        STATE=auction_state.CANCELLED;\n        auction_end = now;\n        emit CanceledEvent(\"Auction Cancelled\", now);\n        return true;\n    }\n\n    function destruct_auction() external only_owner returns (bool){\n\n        require(now > auction_end, \"You can't destruct the contract,The auction is still open\");\n        for(uint i=0;i<bidders.length;i++)\n        {\n            assert(bids[bidders[i]]==0);\n        }\n\n        address payable _auction_owner = address(uint160(auction_owner));\n        selfdestruct(_auction_owner);\n        return true;\n\n    }\n\n\n    function withdraw() public returns (bool){\n        require(now > auction_end ,\"You can't withdraw, the auction is still open\");\n        require(msg.sender != highestBidder  ,\"You can't withdraw, You won the Auction\");\n\n        uint amount;\n        amount=bids[msg.sender];\n        bids[msg.sender]=0;\n        msg.sender.transfer(amount);\n        emit WithdrawalEvent(msg.sender, amount);\n        return true;\n    }\n\n\n    function buyCard() public\n    {\n        require(now > auction_end ,\"You can't buy Car, the auction is still open\");\n        require(msg.sender == highestBidder, \"Only highestBidder can buy the card\");\n\n        uint amount;\n        amount=bids[msg.sender];\n        bids[msg.sender]=0;\n        address payable _auction_owner = address(uint160(auction_owner));\n        _auction_owner.transfer(amount);\n\n        ContractAddress._transfer(address(this), auction_owner, highestBidder, MyCard.cardid);\n        emit Payment(msg.sender, _auction_owner, amount);\n    }\n\n    function numberOfBidders() public view returns(uint)\n    {\n        return bidders.length;\n    }\n\n    function get_owner() public view returns(address){\n        return auction_owner;\n    }\n\n}\n",
  "sourcePath": "/Users/mohitsingh/Documents/COLORADO STATE UNIVERSITY/Block Chain/BlockChain Project/trial/contracts/Auction.sol",
  "compiler": {
    "name": "solc",
    "version": "0.5.16+commit.9c3226ce.Emscripten.clang"
  },
  "schemaVersion": "3.0.23",
  "updatedAt": "2020-04-30T22:48:56.245Z",
  "devdoc": {
    "methods": {}
  },
  "userdoc": {
    "methods": {}
  }
}