{
  "contractName": "Store",
  "abi": [
    {
      "anonymous": false,
      "inputs": [
        {
          "indexed": true,
          "internalType": "address",
          "name": "previousOwner",
          "type": "address"
        },
        {
          "indexed": true,
          "internalType": "address",
          "name": "newOwner",
          "type": "address"
        }
      ],
      "name": "OwnershipTransferred",
      "type": "event"
    },
    {
      "anonymous": false,
      "inputs": [
        {
          "indexed": false,
          "internalType": "address",
          "name": "_from",
          "type": "address"
        },
        {
          "indexed": false,
          "internalType": "address",
          "name": "_to",
          "type": "address"
        },
        {
          "indexed": false,
          "internalType": "uint256",
          "name": "_tokenId",
          "type": "uint256"
        }
      ],
      "name": "Transfer",
      "type": "event"
    },
    {
      "constant": true,
      "inputs": [],
      "name": "TradingOffers",
      "outputs": [
        {
          "internalType": "uint256[]",
          "name": "",
          "type": "uint256[]"
        },
        {
          "internalType": "uint256[]",
          "name": "",
          "type": "uint256[]"
        },
        {
          "internalType": "uint256[]",
          "name": "",
          "type": "uint256[]"
        }
      ],
      "payable": false,
      "stateMutability": "view",
      "type": "function"
    },
    {
      "constant": false,
      "inputs": [
        {
          "internalType": "address",
          "name": "_sender",
          "type": "address"
        },
        {
          "internalType": "uint256",
          "name": "_cardId",
          "type": "uint256"
        },
        {
          "internalType": "uint256",
          "name": "_etherValue",
          "type": "uint256"
        }
      ],
      "name": "_initiateSellingOffer",
      "outputs": [],
      "payable": false,
      "stateMutability": "nonpayable",
      "type": "function"
    },
    {
      "constant": false,
      "inputs": [
        {
          "internalType": "address",
          "name": "_sender",
          "type": "address"
        },
        {
          "internalType": "uint256",
          "name": "_tradeCard",
          "type": "uint256"
        },
        {
          "internalType": "uint256",
          "name": "_forCard",
          "type": "uint256"
        }
      ],
      "name": "_initiateTradingOffer",
      "outputs": [],
      "payable": false,
      "stateMutability": "nonpayable",
      "type": "function"
    },
    {
      "constant": false,
      "inputs": [
        {
          "internalType": "address",
          "name": "contractaddress",
          "type": "address"
        },
        {
          "internalType": "address",
          "name": "_from",
          "type": "address"
        },
        {
          "internalType": "address",
          "name": "_to",
          "type": "address"
        },
        {
          "internalType": "uint256",
          "name": "_CardId",
          "type": "uint256"
        }
      ],
      "name": "_transfer",
      "outputs": [],
      "payable": false,
      "stateMutability": "nonpayable",
      "type": "function"
    },
    {
      "constant": false,
      "inputs": [
        {
          "internalType": "uint256",
          "name": "_offerNumber",
          "type": "uint256"
        }
      ],
      "name": "acceptSellingOffer",
      "outputs": [
        {
          "internalType": "bool",
          "name": "",
          "type": "bool"
        }
      ],
      "payable": true,
      "stateMutability": "payable",
      "type": "function"
    },
    {
      "constant": false,
      "inputs": [
        {
          "internalType": "uint256",
          "name": "_offerNumber",
          "type": "uint256"
        }
      ],
      "name": "acceptTradingOffer",
      "outputs": [],
      "payable": false,
      "stateMutability": "nonpayable",
      "type": "function"
    },
    {
      "constant": true,
      "inputs": [
        {
          "internalType": "uint256",
          "name": "",
          "type": "uint256"
        }
      ],
      "name": "cards",
      "outputs": [
        {
          "internalType": "uint256",
          "name": "tokenid",
          "type": "uint256"
        },
        {
          "internalType": "uint256",
          "name": "cardid",
          "type": "uint256"
        }
      ],
      "payable": false,
      "stateMutability": "view",
      "type": "function"
    },
    {
      "constant": true,
      "inputs": [],
      "name": "cardsOnAuction",
      "outputs": [
        {
          "internalType": "uint256[]",
          "name": "",
          "type": "uint256[]"
        }
      ],
      "payable": false,
      "stateMutability": "view",
      "type": "function"
    },
    {
      "constant": false,
      "inputs": [
        {
          "internalType": "uint256",
          "name": "_auctionTime",
          "type": "uint256"
        },
        {
          "internalType": "uint8",
          "name": "timeFormat",
          "type": "uint8"
        },
        {
          "internalType": "address",
          "name": "_owner",
          "type": "address"
        },
        {
          "internalType": "uint256",
          "name": "_CardId",
          "type": "uint256"
        },
        {
          "internalType": "uint256",
          "name": "_TokenId",
          "type": "uint256"
        }
      ],
      "name": "createAuctionContract",
      "outputs": [],
      "payable": false,
      "stateMutability": "nonpayable",
      "type": "function"
    },
    {
      "constant": true,
      "inputs": [
        {
          "internalType": "address",
          "name": "_owner",
          "type": "address"
        }
      ],
      "name": "getCardsByOwner",
      "outputs": [
        {
          "internalType": "uint256[]",
          "name": "",
          "type": "uint256[]"
        }
      ],
      "payable": false,
      "stateMutability": "view",
      "type": "function"
    },
    {
      "constant": true,
      "inputs": [
        {
          "internalType": "address",
          "name": "_owner",
          "type": "address"
        }
      ],
      "name": "getCardsTokenByOwner",
      "outputs": [
        {
          "internalType": "uint256[]",
          "name": "",
          "type": "uint256[]"
        }
      ],
      "payable": false,
      "stateMutability": "view",
      "type": "function"
    },
    {
      "constant": true,
      "inputs": [],
      "name": "giveMeAddresses",
      "outputs": [
        {
          "internalType": "address[]",
          "name": "",
          "type": "address[]"
        }
      ],
      "payable": false,
      "stateMutability": "view",
      "type": "function"
    },
    {
      "constant": true,
      "inputs": [],
      "name": "isOwner",
      "outputs": [
        {
          "internalType": "bool",
          "name": "",
          "type": "bool"
        }
      ],
      "payable": false,
      "stateMutability": "view",
      "type": "function"
    },
    {
      "constant": true,
      "inputs": [],
      "name": "owner",
      "outputs": [
        {
          "internalType": "address",
          "name": "",
          "type": "address"
        }
      ],
      "payable": false,
      "stateMutability": "view",
      "type": "function"
    },
    {
      "constant": false,
      "inputs": [],
      "name": "renounceOwnership",
      "outputs": [],
      "payable": false,
      "stateMutability": "nonpayable",
      "type": "function"
    },
    {
      "constant": true,
      "inputs": [],
      "name": "sellingOffers",
      "outputs": [
        {
          "internalType": "uint256[]",
          "name": "",
          "type": "uint256[]"
        },
        {
          "internalType": "uint256[]",
          "name": "",
          "type": "uint256[]"
        },
        {
          "internalType": "uint256[]",
          "name": "",
          "type": "uint256[]"
        }
      ],
      "payable": false,
      "stateMutability": "view",
      "type": "function"
    },
    {
      "constant": false,
      "inputs": [
        {
          "internalType": "uint256",
          "name": "_cardId",
          "type": "uint256"
        },
        {
          "internalType": "address",
          "name": "_to",
          "type": "address"
        }
      ],
      "name": "transferACardToFriend",
      "outputs": [],
      "payable": false,
      "stateMutability": "nonpayable",
      "type": "function"
    },
    {
      "constant": false,
      "inputs": [
        {
          "internalType": "address",
          "name": "newOwner",
          "type": "address"
        }
      ],
      "name": "transferOwnership",
      "outputs": [],
      "payable": false,
      "stateMutability": "nonpayable",
      "type": "function"
    },
    {
      "constant": false,
      "inputs": [
        {
          "internalType": "uint256",
          "name": "_packNumber",
          "type": "uint256"
        }
      ],
      "name": "purchasePack",
      "outputs": [],
      "payable": true,
      "stateMutability": "payable",
      "type": "function"
    },
    {
      "constant": false,
      "inputs": [
        {
          "internalType": "uint256",
          "name": "_newPrice",
          "type": "uint256"
        }
      ],
      "name": "changePackCost",
      "outputs": [],
      "payable": false,
      "stateMutability": "nonpayable",
      "type": "function"
    },
    {
      "constant": true,
      "inputs": [],
      "name": "getContractBalance",
      "outputs": [
        {
          "internalType": "uint256",
          "name": "",
          "type": "uint256"
        }
      ],
      "payable": false,
      "stateMutability": "view",
      "type": "function"
    }
  ],
  "bytecode": "0x6080604052600160075560006008556001600a556000600b556000600d556000600e55670de0b6b3a7640000600f55604051806105000160405280630557a9a363ffffffff1681526020016302b22c4963ffffffff1681526020016301ec783a63ffffffff1681526020016302ccf4ae63ffffffff16815260200163056edf8063ffffffff168152602001624667e463ffffffff1681526020016304970c3063ffffffff1681526020016303c2dc4163ffffffff16815260200162b51a9963ffffffff1681526020016305251d1463ffffffff16815260200163050004ca63ffffffff1681526020016240317463ffffffff1681526020016302fba17363ffffffff168152602001630268128b63ffffffff168152602001630268128b63ffffffff16815260200163056bfe2063ffffffff16815260200163020dd4b363ffffffff1681526020016302272d3d63ffffffff168152602001622bb14f63ffffffff1681526020016302395b4463ffffffff16815260200163047dd99463ffffffff16815260200162eb02a163ffffffff16815260200163036a691d63ffffffff16815260200163026ef67f63ffffffff1681526020016302532a8863ffffffff16815260200163011d80b363ffffffff16815260200163015d96dd63ffffffff1681526020016302a3c54363ffffffff16815260200163051bc44c63ffffffff16815260200163038746f163ffffffff1681526020016302bfe4aa63ffffffff16815260200163016fa7bd63ffffffff1681526020016304577e7663ffffffff1681526020016304737cae63ffffffff16815260200163048ae3fa63ffffffff16815260200163044f3f4363ffffffff168152602001629baf0e63ffffffff168152602001630341ed5a63ffffffff168152602001626c2e2f63ffffffff16815260200163034e049563ffffffff168152506010906028620002c392919062000b4f565b5060405180610500016040528063049fdc6963ffffffff16815260200163056b270b63ffffffff1681526020016302f4a35a63ffffffff16815260200162130e7f63ffffffff1681526020016305dbec8363ffffffff168152602001630211641063ffffffff1681526020016303a0bee563ffffffff1681526020016301552fac63ffffffff16815260200162f79ce463ffffffff16815260200163029afb1763ffffffff1681526020016304b7113863ffffffff16815260200163028a04fd63ffffffff1681526020016301e04d2163ffffffff16815260200162411b5763ffffffff1681526020016301d3c43163ffffffff168152602001622fd32163ffffffff1681526020016304a924a763ffffffff168152602001625d278863ffffffff1681526020016303ff184663ffffffff1681526020016303fd3d7a63ffffffff168152602001630172b2dc63ffffffff16815260200163030f783563ffffffff1681526020016301702b1263ffffffff16815260200163019de57663ffffffff16815260200163050b33a263ffffffff16815260200162a7ba7b63ffffffff168152602001630140ad1963ffffffff1681526020016304c2b8bd63ffffffff1681526020016301ec661f63ffffffff168152602001623dae1c63ffffffff1681526020016301dfd8b163ffffffff16815260200163016857b163ffffffff1681526020016250595663ffffffff168152602001630501a81663ffffffff16815260200163015e53e763ffffffff16815260200163058cb8d163ffffffff168152602001630161921a63ffffffff168152602001622345b363ffffffff1681526020016305d97e4063ffffffff1681526020016301e04d2163ffffffff1681525060389060286200055792919062000b4f565b5060405180610500016040528063041efe8263ffffffff1681526020016236870863ffffffff1681526020016302ca6fc263ffffffff1681526020016301e3da8263ffffffff1681526020016301e8164a63ffffffff168152602001630404017763ffffffff16815260200163053424bd63ffffffff1681526020016305248e3363ffffffff16815260200162c5a68a63ffffffff16815260200163014dfdee63ffffffff168152602001630373378d63ffffffff1681526020016301c2e33463ffffffff1681526020016304e9d01263ffffffff16815260200163012e8c0563ffffffff16815260200163011be44f63ffffffff16815260200163014992e463ffffffff16815260200163059cd2dd63ffffffff1681526020016253d82463ffffffff1681526020016301fff16663ffffffff16815260200163042b6b5f63ffffffff1681526020016305acf47863ffffffff1681526020016303e712de63ffffffff1681526020016301b0b8f663ffffffff16815260200163055f8bab63ffffffff168152602001630330cdd563ffffffff168152602001630156193c63ffffffff1681526020016303817f6b63ffffffff168152602001630144f84863ffffffff16815260200163037fa47d63ffffffff168152602001630502f92b63ffffffff16815260200163036e977563ffffffff1681526020016301f08c4d63ffffffff1681526020016303fff1da63ffffffff1681526020016303fe2e7e63ffffffff16815260200163027ea8c163ffffffff168152602001630264638763ffffffff16815260200163049ef8aa63ffffffff168152602001630270543763ffffffff1681526020016302bc4b5263ffffffff1681526020016302a07fbe63ffffffff168152506060906028620007f192919062000b4f565b506040518061050001604052806303e5f88c63ffffffff16815260200163025d61f063ffffffff1681526020016303f031db63ffffffff1681526020016225a94963ffffffff1681526020016303ee6e6163ffffffff168152602001630571d26e63ffffffff1681526020016303c17ded63ffffffff16815260200163056381d663ffffffff1681526020016301e56b9063ffffffff1681526020016303364eeb63ffffffff168152602001630189456163ffffffff1681526020016303252d6763ffffffff16815260200163050a223863ffffffff168152602001630534b67863ffffffff168152602001630307832a63ffffffff1681526020016304f5f5a963ffffffff168152602001630347414c63ffffffff16815260200163011ba9b563ffffffff1681526020016301186f5663ffffffff168152602001630334908d63ffffffff1681526020016302ab04b263ffffffff1681526020016305d80c8663ffffffff16815260200163010d686063ffffffff1681526020016304c72a7363ffffffff1681526020016299220563ffffffff16815260200163035d1b3063ffffffff1681526020016304efdb1363ffffffff1681526020016302b3677863ffffffff1681526020016304edfca563ffffffff16815260200163011590ec63ffffffff1681526020016302a8785663ffffffff16815260200163044a633563ffffffff1681526020016302a6993f63ffffffff168152602001630439421f63ffffffff1681526020016304bf59ab63ffffffff16815260200163019560de63ffffffff168152602001630321dd3d63ffffffff168152602001630316fdb163ffffffff1681526020016303139beb63ffffffff168152602001630303fd8463ffffffff16815250608890602862000a8c92919062000b4f565b50336000806101000a81548173ffffffffffffffffffffffffffffffffffffffff021916908373ffffffffffffffffffffffffffffffffffffffff1602179055506000809054906101000a900473ffffffffffffffffffffffffffffffffffffffff1673ffffffffffffffffffffffffffffffffffffffff16600073ffffffffffffffffffffffffffffffffffffffff167f8be0079c531659141344cd1fd0a4f28419497f9722a3daafe3b4186f6b6457e060405160405180910390a362000bc4565b826028810192821562000b89579160200282015b8281111562000b88578251829063ffffffff1690559160200191906001019062000b63565b5b50905062000b98919062000b9c565b5090565b62000bc191905b8082111562000bbd57600081600090555060010162000ba3565b5090565b90565b6144418062000bd46000396000f3fe608060405260043610620001465760003560e01c80638da5cb5b11620000bb578063a0d83b9e1162000079578063a0d83b9e146200078a578063b41e0afe14620007c9578063c50b522b146200083a578063eba73c7c14620008ba578063f2fde38b1462000966578063f31281d714620009bb5762000146565b80638da5cb5b146200056e5780638dc1076814620005c85780638f32d59b1462000622578063942eaa2014620006545780639ef1ddc914620006855762000146565b8063572b80541162000109578063572b805414620003045780636a7f0c4d14620004095780636f9fb98a14620004b5578063715018a614620004e35780637410b6ca14620004fd5762000146565b806311d31b2d146200014b578063337ceda914620001b457806347b313dc146200021d57806355e984ff146200027c57806356e163aa14620002c5575b600080fd5b3480156200015857600080fd5b50620001b2600480360360608110156200017157600080fd5b81019080803573ffffffffffffffffffffffffffffffffffffffff169060200190929190803590602001909291908035906020019092919050505062000a5a565b005b348015620001c157600080fd5b506200021b60048036036060811015620001da57600080fd5b81019080803573ffffffffffffffffffffffffffffffffffffffff169060200190929190803590602001909291908035906020019092919050505062000bbe565b005b3480156200022a57600080fd5b506200027a600480360360408110156200024357600080fd5b8101908080359060200190929190803573ffffffffffffffffffffffffffffffffffffffff16906020019092919050505062000d22565b005b620002ab600480360360208110156200029457600080fd5b810190808035906020019092919050505062000f39565b604051808215151515815260200191505060405180910390f35b348015620002d257600080fd5b506200030260048036036020811015620002eb57600080fd5b810190808035906020019092919050505062001336565b005b3480156200031157600080fd5b506200031c62001354565b60405180806020018060200180602001848103845287818151815260200191508051906020019060200280838360005b83811015620003695780820151818401526020810190506200034c565b50505050905001848103835286818151815260200191508051906020019060200280838360005b83811015620003ad57808201518184015260208101905062000390565b50505050905001848103825285818151815260200191508051906020019060200280838360005b83811015620003f1578082015181840152602081019050620003d4565b50505050905001965050505050505060405180910390f35b3480156200041657600080fd5b506200045c600480360360208110156200042f57600080fd5b81019080803573ffffffffffffffffffffffffffffffffffffffff169060200190929190505050620014ec565b6040518080602001828103825283818151815260200191508051906020019060200280838360005b83811015620004a157808201518184015260208101905062000484565b505050509050019250505060405180910390f35b348015620004c257600080fd5b50620004cd6200163d565b6040518082815260200191505060405180910390f35b348015620004f057600080fd5b50620004fb62001659565b005b3480156200050a57600080fd5b50620005156200172c565b6040518080602001828103825283818151815260200191508051906020019060200280838360005b838110156200055a5780820151818401526020810190506200053d565b505050509050019250505060405180910390f35b3480156200057b57600080fd5b506200058662001820565b604051808273ffffffffffffffffffffffffffffffffffffffff1673ffffffffffffffffffffffffffffffffffffffff16815260200191505060405180910390f35b348015620005d557600080fd5b506200060560048036036020811015620005ee57600080fd5b810190808035906020019092919050505062001849565b604051808381526020018281526020019250505060405180910390f35b3480156200062f57600080fd5b506200063a6200187b565b604051808215151515815260200191505060405180910390f35b62000683600480360360208110156200066c57600080fd5b8101908080359060200190929190505050620018d2565b005b3480156200069257600080fd5b506200069d62001a5a565b60405180806020018060200180602001848103845287818151815260200191508051906020019060200280838360005b83811015620006ea578082015181840152602081019050620006cd565b50505050905001848103835286818151815260200191508051906020019060200280838360005b838110156200072e57808201518184015260208101905062000711565b50505050905001848103825285818151815260200191508051906020019060200280838360005b838110156200077257808201518184015260208101905062000755565b50505050905001965050505050505060405180910390f35b3480156200079757600080fd5b50620007c760048036036020811015620007b057600080fd5b810190808035906020019092919050505062001bf2565b005b348015620007d657600080fd5b50620007e162001ed2565b6040518080602001828103825283818151815260200191508051906020019060200280838360005b838110156200082657808201518184015260208101905062000809565b505050509050019250505060405180910390f35b3480156200084757600080fd5b50620008b8600480360360a08110156200086057600080fd5b8101908080359060200190929190803560ff169060200190929190803573ffffffffffffffffffffffffffffffffffffffff169060200190929190803590602001909291908035906020019092919050505062001fc3565b005b348015620008c757600080fd5b506200090d60048036036020811015620008e057600080fd5b81019080803573ffffffffffffffffffffffffffffffffffffffff1690602001909291905050506200221c565b6040518080602001828103825283818151815260200191508051906020019060200280838360005b838110156200095257808201518184015260208101905062000935565b505050509050019250505060405180910390f35b3480156200097357600080fd5b50620009b9600480360360208110156200098c57600080fd5b81019080803573ffffffffffffffffffffffffffffffffffffffff1690602001909291905050506200236d565b005b348015620009c857600080fd5b5062000a5860048036036080811015620009e157600080fd5b81019080803573ffffffffffffffffffffffffffffffffffffffff169060200190929190803573ffffffffffffffffffffffffffffffffffffffff169060200190929190803573ffffffffffffffffffffffffffffffffffffffff169060200190929190803590602001909291905050506200238f565b005b6001151562000a6a83856200281b565b15151462000ae0576040517f08c379a00000000000000000000000000000000000000000000000000000000081526004018080602001828103825260178152602001807f596f7520646f6e2774204f776e2074686174206361726400000000000000000081525060200191505060405180910390fd5b62000aea62002f26565b828160000181815250508181602001818152505083816040019073ffffffffffffffffffffffffffffffffffffffff16908173ffffffffffffffffffffffffffffffffffffffff1681525050806009600060076000815480929190600101919050558152602001908152602001600020600082015181600001556020820151816001015560408201518160020160006101000a81548173ffffffffffffffffffffffffffffffffffffffff021916908373ffffffffffffffffffffffffffffffffffffffff16021790555090505050505050565b6001151562000bce83856200281b565b15151462000c44576040517f08c379a00000000000000000000000000000000000000000000000000000000081526004018080602001828103825260178152602001807f596f7520646f6e2774204f776e2074686174206361726400000000000000000081525060200191505060405180910390fd5b62000c4e62002f5d565b828160000181815250508181602001818152505083816040019073ffffffffffffffffffffffffffffffffffffffff16908173ffffffffffffffffffffffffffffffffffffffff168152505080600c6000600a6000815480929190600101919050558152602001908152602001600020600082015181600001556020820151816001015560408201518160020160006101000a81548173ffffffffffffffffffffffffffffffffffffffff021916908373ffffffffffffffffffffffffffffffffffffffff16021790555090505050505050565b6001151562000d3283336200281b565b15151462000da8576040517f08c379a00000000000000000000000000000000000000000000000000000000081526004018080602001828103825260178152602001807f596f7520646f6e2774204f776e2074686174206361726400000000000000000081525060200191505060405180910390fd5b806002600062000db98533620028ec565b815260200190815260200160002060006101000a81548173ffffffffffffffffffffffffffffffffffffffff021916908373ffffffffffffffffffffffffffffffffffffffff16021790555062000e5a6001600360008473ffffffffffffffffffffffffffffffffffffffff1673ffffffffffffffffffffffffffffffffffffffff16815260200190815260200160002054620029b590919063ffffffff16565b600360008373ffffffffffffffffffffffffffffffffffffffff1673ffffffffffffffffffffffffffffffffffffffff1681526020019081526020016000208190555062000ef26001600360003373ffffffffffffffffffffffffffffffffffffffff1673ffffffffffffffffffffffffffffffffffffffff16815260200190815260200160002054620029d290919063ffffffff16565b600360003373ffffffffffffffffffffffffffffffffffffffff1673ffffffffffffffffffffffffffffffffffffffff168152602001908152602001600020819055505050565b600062000f4562002f5d565b600c600084815260200190815260200160002060405180606001604052908160008201548152602001600182015481526020016002820160009054906101000a900473ffffffffffffffffffffffffffffffffffffffff1673ffffffffffffffffffffffffffffffffffffffff1673ffffffffffffffffffffffffffffffffffffffff168152505090503481602001511462001049576040517f08c379a00000000000000000000000000000000000000000000000000000000081526004018080602001828103825260108152602001807f4e6f7420456e6f7567682045746865720000000000000000000000000000000081525060200191505060405180910390fd5b6001151562001061826000015183604001516200281b565b151514620010d7576040517f08c379a000000000000000000000000000000000000000000000000000000000815260040180806020018281038252601e8152602001807f54726164657220646f6e2774204f776e20746861742063617264206e6f77000081525060200191505060405180910390fd5b3360026000620010f084600001518560400151620028ec565b815260200190815260200160002060006101000a81548173ffffffffffffffffffffffffffffffffffffffff021916908373ffffffffffffffffffffffffffffffffffffffff160217905550620011916001600360003373ffffffffffffffffffffffffffffffffffffffff1673ffffffffffffffffffffffffffffffffffffffff16815260200190815260200160002054620029b590919063ffffffff16565b600360003373ffffffffffffffffffffffffffffffffffffffff1673ffffffffffffffffffffffffffffffffffffffff168152602001908152602001600020819055506200122d600160036000846040015173ffffffffffffffffffffffffffffffffffffffff1673ffffffffffffffffffffffffffffffffffffffff16815260200190815260200160002054620029d290919063ffffffff16565b60036000836040015173ffffffffffffffffffffffffffffffffffffffff1673ffffffffffffffffffffffffffffffffffffffff168152602001908152602001600020819055506000816040015190508073ffffffffffffffffffffffffffffffffffffffff166108fc83602001519081150290604051600060405180830381858888f19350505050158015620012c8573d6000803e3d6000fd5b50620012e16001600b54620029b590919063ffffffff16565b50600c600085815260200190815260200160002060008082016000905560018201600090556002820160006101000a81549073ffffffffffffffffffffffffffffffffffffffff021916905550505050919050565b620013406200187b565b6200134a57600080fd5b80600f8190555050565b606080606080600b546001600a540303604051908082528060200260200182016040528015620013935781602001602082028038833980820191505090505b5090506060600b546001600a540303604051908082528060200260200182016040528015620013d15781602001602082028038833980820191505090505b5090506060600b546001600a5403036040519080825280602002602001820160405280156200140f5781602001602082028038833980820191505090505b50905060008090506000600190505b600a54811015620014d9576000600c60008381526020019081526020016000206000015414620014cb57600c6000828152602001908152602001600020600001548583815181106200146c57fe5b602002602001018181525050600c6000828152602001908152602001600020600101548483815181106200149c57fe5b60200260200101818152505080838381518110620014b657fe5b60200260200101818152505081806001019250505b80806001019150506200141e565b5083838396509650965050505050909192565b606080600360008473ffffffffffffffffffffffffffffffffffffffff1673ffffffffffffffffffffffffffffffffffffffff168152602001908152602001600020546040519080825280602002602001820160405280156200155e5781602001602082028038833980820191505090505b509050600080905060008090505b60018054905081101562001632578473ffffffffffffffffffffffffffffffffffffffff166002600083815260200190815260200160002060009054906101000a900473ffffffffffffffffffffffffffffffffffffffff1673ffffffffffffffffffffffffffffffffffffffff161415620016245760018181548110620015f057fe5b9060005260206000209060020201600001548383815181106200160f57fe5b60200260200101818152505081806001019250505b80806001019150506200156c565b508192505050919050565b6000620016496200187b565b6200165357600080fd5b47905090565b620016636200187b565b6200166d57600080fd5b600073ffffffffffffffffffffffffffffffffffffffff166000809054906101000a900473ffffffffffffffffffffffffffffffffffffffff1673ffffffffffffffffffffffffffffffffffffffff167f8be0079c531659141344cd1fd0a4f28419497f9722a3daafe3b4186f6b6457e060405160405180910390a360008060006101000a81548173ffffffffffffffffffffffffffffffffffffffff021916908373ffffffffffffffffffffffffffffffffffffffff160217905550565b606080600480549050604051908082528060200260200182016040528015620017645781602001602082028038833980820191505090505b509050600080905060008090505b60048054905081101562001817577fffffffffffffffffffffffffffffffffffffffffffffffffffffffffffffffff60048281548110620017af57fe5b90600052602060002090600202016001015414620018095760048181548110620017d557fe5b906000526020600020906002020160010154838381518110620017f457fe5b60200260200101818152505081806001019250505b808060010191505062001772565b50819250505090565b60008060009054906101000a900473ffffffffffffffffffffffffffffffffffffffff16905090565b600181815481106200185757fe5b90600052602060002090600202016000915090508060000154908060010154905082565b60008060009054906101000a900473ffffffffffffffffffffffffffffffffffffffff1673ffffffffffffffffffffffffffffffffffffffff163373ffffffffffffffffffffffffffffffffffffffff1614905090565b600f543414620018e157600080fd5b600081118015620018f25750600581105b620018fc57600080fd5b6001811415620019565762001950601060288060200260405190810160405280929190826028801562001945576020028201915b81548152602001906001019080831162001930575b5050505050620029ea565b62001a57565b6002811415620019b057620019aa60386028806020026040519081016040528092919082602880156200199f576020028201915b8154815260200190600101908083116200198a575b5050505050620029ea565b62001a56565b600381141562001a0a5762001a046060602880602002604051908101604052809291908260288015620019f9576020028201915b815481526020019060010190808311620019e4575b5050505050620029ea565b62001a55565b62001a54608860288060200260405190810160405280929190826028801562001a49576020028201915b81548152602001906001019080831162001a34575b5050505050620029ea565b5b5b5b50565b6060806060806008546001600754030360405190808252806020026020018201604052801562001a995781602001602082028038833980820191505090505b50905060606008546001600754030360405190808252806020026020018201604052801562001ad75781602001602082028038833980820191505090505b50905060606008546001600754030360405190808252806020026020018201604052801562001b155781602001602082028038833980820191505090505b50905060008090506000600190505b60075481101562001bdf57600060096000838152602001908152602001600020600001541462001bd157600960008281526020019081526020016000206000015485838151811062001b7257fe5b602002602001018181525050600960008281526020019081526020016000206001015484838151811062001ba257fe5b6020026020010181815250508083838151811062001bbc57fe5b60200260200101818152505081806001019250505b808060010191505062001b24565b5083838396509650965050505050909192565b62001bfc62002f26565b6009600083815260200190815260200160002060405180606001604052908160008201548152602001600182015481526020016002820160009054906101000a900473ffffffffffffffffffffffffffffffffffffffff1673ffffffffffffffffffffffffffffffffffffffff1673ffffffffffffffffffffffffffffffffffffffff168152505090506001151562001c9a8260200151336200281b565b15151462001d10576040517f08c379a00000000000000000000000000000000000000000000000000000000081526004018080602001828103825260178152602001807f596f7520646f6e2774204f776e2074686174206361726400000000000000000081525060200191505060405180910390fd5b6001151562001d28826000015183604001516200281b565b15151462001d9e576040517f08c379a000000000000000000000000000000000000000000000000000000000815260040180806020018281038252601e8152602001807f54726164657220646f6e2774204f776e20746861742063617264206e6f77000081525060200191505060405180910390fd5b336002600062001db784600001518560400151620028ec565b815260200190815260200160002060006101000a81548173ffffffffffffffffffffffffffffffffffffffff021916908373ffffffffffffffffffffffffffffffffffffffff16021790555080604001516002600062001e1c846020015133620028ec565b815260200190815260200160002060006101000a81548173ffffffffffffffffffffffffffffffffffffffff021916908373ffffffffffffffffffffffffffffffffffffffff16021790555062001e806001600854620029b590919063ffffffff16565b506009600083815260200190815260200160002060008082016000905560018201600090556002820160006101000a81549073ffffffffffffffffffffffffffffffffffffffff021916905550505050565b60608060068054905060405190808252806020026020018201604052801562001f0a5781602001602082028038833980820191505090505b509050600080905060008090505b60068054905081101562001fba576006818154811062001f3457fe5b9060005260206000200160009054906101000a900473ffffffffffffffffffffffffffffffffffffffff1683838060010194508151811062001f7257fe5b602002602001019073ffffffffffffffffffffffffffffffffffffffff16908173ffffffffffffffffffffffffffffffffffffffff1681525050808060010191505062001f18565b50819250505090565b6001151562001fd383856200281b565b15151462002049576040517f08c379a00000000000000000000000000000000000000000000000000000000081526004018080602001828103825260178152602001807f596f7520646f6e2774204f776e2074686174206361726400000000000000000081525060200191505060405180910390fd5b60008585858585306040516200205f9062002f94565b808781526020018660ff1660ff1681526020018573ffffffffffffffffffffffffffffffffffffffff1673ffffffffffffffffffffffffffffffffffffffff1681526020018481526020018381526020018273ffffffffffffffffffffffffffffffffffffffff1673ffffffffffffffffffffffffffffffffffffffff1681526020019650505050505050604051809103906000f08015801562002107573d6000803e3d6000fd5b509050600060016004604051806040016040528086815260200187815250908060018154018082558091505090600182039060005260206000209060020201600090919290919091506000820151816000015560208201518160010155505003905080600560008773ffffffffffffffffffffffffffffffffffffffff1673ffffffffffffffffffffffffffffffffffffffff1681526020019081526020016000208190555060068290806001815401808255809150509060018203906000526020600020016000909192909190916101000a81548173ffffffffffffffffffffffffffffffffffffffff021916908373ffffffffffffffffffffffffffffffffffffffff1602179055505050505050505050565b606080600360008473ffffffffffffffffffffffffffffffffffffffff1673ffffffffffffffffffffffffffffffffffffffff168152602001908152602001600020546040519080825280602002602001820160405280156200228e5781602001602082028038833980820191505090505b509050600080905060008090505b60018054905081101562002362578473ffffffffffffffffffffffffffffffffffffffff166002600083815260200190815260200160002060009054906101000a900473ffffffffffffffffffffffffffffffffffffffff1673ffffffffffffffffffffffffffffffffffffffff1614156200235457600181815481106200232057fe5b9060005260206000209060020201600101548383815181106200233f57fe5b60200260200101818152505081806001019250505b80806001019150506200229c565b508192505050919050565b620023776200187b565b6200238157600080fd5b6200238c8162002a6b565b50565b600080905060008090505b6006805490508110156200242d578573ffffffffffffffffffffffffffffffffffffffff1660068281548110620023cd57fe5b9060005260206000200160009054906101000a900473ffffffffffffffffffffffffffffffffffffffff1673ffffffffffffffffffffffffffffffffffffffff1614156200241f57600191506200242d565b80806001019150506200239a565b60011515821515146200248c576040517f08c379a0000000000000000000000000000000000000000000000000000000008152600401808060200182810382526021815260200180620043ec6021913960400191505060405180910390fd5b620024e16001600360008773ffffffffffffffffffffffffffffffffffffffff1673ffffffffffffffffffffffffffffffffffffffff16815260200190815260200160002054620029b590919063ffffffff16565b600360008673ffffffffffffffffffffffffffffffffffffffff1673ffffffffffffffffffffffffffffffffffffffff16815260200190815260200160002081905550620025796001600360008873ffffffffffffffffffffffffffffffffffffffff1673ffffffffffffffffffffffffffffffffffffffff16815260200190815260200160002054620029d290919063ffffffff16565b600360008773ffffffffffffffffffffffffffffffffffffffff1673ffffffffffffffffffffffffffffffffffffffff168152602001908152602001600020819055508360026000620025cd8689620028ec565b815260200190815260200160002060006101000a81548173ffffffffffffffffffffffffffffffffffffffff021916908373ffffffffffffffffffffffffffffffffffffffff1602179055507fffffffffffffffffffffffffffffffffffffffffffffffffffffffffffffffff6004600560008873ffffffffffffffffffffffffffffffffffffffff1673ffffffffffffffffffffffffffffffffffffffff16815260200190815260200160002054815481106200268757fe5b9060005260206000209060020201600101819055507fffffffffffffffffffffffffffffffffffffffffffffffffffffffffffffffff6004600560008873ffffffffffffffffffffffffffffffffffffffff1673ffffffffffffffffffffffffffffffffffffffff16815260200190815260200160002054815481106200270a57fe5b9060005260206000209060020201600001819055506200272a8162002b64565b62002774600560008773ffffffffffffffffffffffffffffffffffffffff1673ffffffffffffffffffffffffffffffffffffffff1681526020019081526020016000205462002c7a565b7fddf252ad1be2c89b69c2b068fc378daa952ba7f163c4a11628f55a4df523b3ef858585604051808473ffffffffffffffffffffffffffffffffffffffff1673ffffffffffffffffffffffffffffffffffffffff1681526020018373ffffffffffffffffffffffffffffffffffffffff1673ffffffffffffffffffffffffffffffffffffffff168152602001828152602001935050505060405180910390a1505050505050565b6000806000905060008090505b600180549050811015620028e1578373ffffffffffffffffffffffffffffffffffffffff166002600083815260200190815260200160002060009054906101000a900473ffffffffffffffffffffffffffffffffffffffff1673ffffffffffffffffffffffffffffffffffffffff16148015620028c357508460018281548110620028af57fe5b906000526020600020906002020160010154145b15620028d35760019150620028e1565b808060010191505062002828565b508091505092915050565b600080600090505b600180549050811015620029ad578273ffffffffffffffffffffffffffffffffffffffff166002600083815260200190815260200160002060009054906101000a900473ffffffffffffffffffffffffffffffffffffffff1673ffffffffffffffffffffffffffffffffffffffff161480156200298f575083600182815481106200297b57fe5b906000526020600020906002020160010154145b156200299f5780915050620029af565b8080600101915050620028f4565b505b92915050565b600080828401905083811015620029c857fe5b8091505092915050565b600082821115620029df57fe5b818303905092915050565b620029f462002fa2565b620029fe62002d44565b905060008090505b600581101562002a665760008383836005811062002a2057fe5b60200201516028811062002a3057fe5b6020020151905062002a45600e548262002e22565b600e6000815480929190600101919050555050808060010191505062002a06565b505050565b600073ffffffffffffffffffffffffffffffffffffffff168173ffffffffffffffffffffffffffffffffffffffff16141562002aa657600080fd5b8073ffffffffffffffffffffffffffffffffffffffff166000809054906101000a900473ffffffffffffffffffffffffffffffffffffffff1673ffffffffffffffffffffffffffffffffffffffff167f8be0079c531659141344cd1fd0a4f28419497f9722a3daafe3b4186f6b6457e060405160405180910390a3806000806101000a81548173ffffffffffffffffffffffffffffffffffffffff021916908373ffffffffffffffffffffffffffffffffffffffff16021790555050565b60008190505b60016006805490500381101562002c1b576006600182018154811062002b8c57fe5b9060005260206000200160009054906101000a900473ffffffffffffffffffffffffffffffffffffffff166006828154811062002bc557fe5b9060005260206000200160006101000a81548173ffffffffffffffffffffffffffffffffffffffff021916908373ffffffffffffffffffffffffffffffffffffffff160217905550808060010191505062002b6a565b5060066001600680549050038154811062002c3257fe5b9060005260206000200160006101000a81549073ffffffffffffffffffffffffffffffffffffffff0219169055600680548091906001900362002c76919062002fc4565b5050565b60008190505b60016004805490500381101562002cf1576004600182018154811062002ca257fe5b90600052602060002090600202016004828154811062002cbe57fe5b90600052602060002090600202016000820154816000015560018201548160010155905050808060010191505062002c80565b5060046001600480549050038154811062002d0857fe5b906000526020600020906002020160008082016000905560018201600090555050600480548091906001900362002d40919062002ff3565b5050565b62002d4e62002fa2565b62002d5862002fa2565b60008090505b600581101562002e1a57600060274233600d54604051602001808481526020018373ffffffffffffffffffffffffffffffffffffffff1673ffffffffffffffffffffffffffffffffffffffff1660601b815260140182815260200193505050506040516020818303038152906040528051906020012060001c8162002ddf57fe5b0690508083836005811062002df057fe5b602002018181525050600d6000815480929190600101919050555050808060010191505062002d5e565b508091505090565b60006001806040518060400160405280868152602001858152509080600181540180825580915050906001820390600052602060002090600202016000909192909190915060008201518160000155602082015181600101555050039050336002600083815260200190815260200160002060006101000a81548173ffffffffffffffffffffffffffffffffffffffff021916908373ffffffffffffffffffffffffffffffffffffffff160217905550600360003373ffffffffffffffffffffffffffffffffffffffff1673ffffffffffffffffffffffffffffffffffffffff16815260200190815260200160002060008154809291906001019190505550505050565b60405180606001604052806000815260200160008152602001600073ffffffffffffffffffffffffffffffffffffffff1681525090565b60405180606001604052806000815260200160008152602001600073ffffffffffffffffffffffffffffffffffffffff1681525090565b611369806200308383390190565b6040518060a00160405280600590602082028038833980820191505090505090565b81548183558181111562002fee5781836000526020600020918201910162002fed919062003028565b5b505050565b815481835581811115620030235760020281600202836000526020600020918201910162003022919062003050565b5b505050565b6200304d91905b80821115620030495760008160009055506001016200302f565b5090565b90565b6200307f91905b808211156200307b5760008082016000905560018201600090555060020162003057565b5090565b9056fe608060405234801561001057600080fd5b50604051611369380380611369833981810160405260c081101561003357600080fd5b810190808051906020019092919080519060200190929190805190602001909291908051906020019092919080519060200190929190805190602001909291905050508460ff1660028081111561008657fe5b101561009157600080fd5b83600160006101000a81548173ffffffffffffffffffffffffffffffffffffffff021916908373ffffffffffffffffffffffffffffffffffffffff16021790555042600281905550600060028111156100e657fe5b8560ff1614156100fd57620151808602955061013f565b6001600281111561010a57fe5b8560ff16141561012057610e108602955061013e565b60028081111561012c57fe5b8560ff16141561013d57603c860295505b5b5b85600254016003819055506001600a60006101000a81548160ff0219169083600181111561016957fe5b02179055508160066000018190555082600660010181905550806000806101000a81548173ffffffffffffffffffffffffffffffffffffffff021916908373ffffffffffffffffffffffffffffffffffffffff160217905550505050505050611192806101d76000396000f3fe6080604052600436106100dd5760003560e01c8063a86f74251161007f578063c458b65a11610059578063c458b65a146102bc578063c486456c146102e7578063d57bde7914610320578063efbf6e0b1461034b576100dd565b8063a86f742514610244578063bbafd3d414610276578063bdc0779a146102a5576100dd565b80633ccfd60b116100bb5780633ccfd60b1461019457806378f45340146101c357806384ddc67f146101ee5780638b7afe2e14610219576100dd565b80630ac298dc146100ec5780631998aeef146101435780633ba88ca114610165575b3480156100e957600080fd5b50005b3480156100f857600080fd5b50610101610376565b604051808273ffffffffffffffffffffffffffffffffffffffff1673ffffffffffffffffffffffffffffffffffffffff16815260200191505060405180910390f35b61014b6103a0565b604051808215151515815260200191505060405180910390f35b34801561017157600080fd5b5061017a61069f565b604051808215151515815260200191505060405180910390f35b3480156101a057600080fd5b506101a96107ac565b604051808215151515815260200191505060405180910390f35b3480156101cf57600080fd5b506101d86109f2565b6040518082815260200191505060405180910390f35b3480156101fa57600080fd5b506102036109f8565b6040518082815260200191505060405180910390f35b34801561022557600080fd5b5061022e610a3f565b6040518082815260200191505060405180910390f35b34801561025057600080fd5b50610259610aa1565b604051808381526020018281526020019250505060405180910390f35b34801561028257600080fd5b5061028b610ab3565b604051808215151515815260200191505060405180910390f35b3480156102b157600080fd5b506102ba610c4a565b005b3480156102c857600080fd5b506102d1611055565b6040518082815260200191505060405180910390f35b3480156102f357600080fd5b506102fc61105b565b6040518082600181111561030c57fe5b60ff16815260200191505060405180910390f35b34801561032c57600080fd5b5061033561106e565b6040518082815260200191505060405180910390f35b34801561035757600080fd5b50610360611074565b6040518082815260200191505060405180910390f35b6000600160009054906101000a900473ffffffffffffffffffffffffffffffffffffffff16905090565b60006003544211156103b157600080fd5b60045434600960003373ffffffffffffffffffffffffffffffffffffffff1673ffffffffffffffffffffffffffffffffffffffff168152602001908152602001600020540111610469576040517f08c379a00000000000000000000000000000000000000000000000000000000081526004018080602001828103825260208152602001807f596f752063616e2774206269642c204d616b652061206869676865722042696481525060200191505060405180910390fd5b33600560006101000a81548173ffffffffffffffffffffffffffffffffffffffff021916908373ffffffffffffffffffffffffffffffffffffffff16021790555034600960003373ffffffffffffffffffffffffffffffffffffffff1673ffffffffffffffffffffffffffffffffffffffff16815260200190815260200160002054016004819055506000600960003373ffffffffffffffffffffffffffffffffffffffff1673ffffffffffffffffffffffffffffffffffffffff1681526020019081526020016000205414156105a15760083390806001815401808255809150509060018203906000526020600020016000909192909190916101000a81548173ffffffffffffffffffffffffffffffffffffffff021916908373ffffffffffffffffffffffffffffffffffffffff160217905550505b34600960003373ffffffffffffffffffffffffffffffffffffffff1673ffffffffffffffffffffffffffffffffffffffff1681526020019081526020016000205401600960003373ffffffffffffffffffffffffffffffffffffffff1673ffffffffffffffffffffffffffffffffffffffff16815260200190815260200160002081905550600560009054906101000a900473ffffffffffffffffffffffffffffffffffffffff1673ffffffffffffffffffffffffffffffffffffffff167f0d993d4f8a84158f5329713d6d13ef54e77b325040c887c8b3e565cfd0cd3e216004546040518082815260200191505060405180910390a26001905090565b6000600160009054906101000a900473ffffffffffffffffffffffffffffffffffffffff1673ffffffffffffffffffffffffffffffffffffffff163373ffffffffffffffffffffffffffffffffffffffff16146106fb57600080fd5b60035442111561070a57600080fd5b6000600a60006101000a81548160ff0219169083600181111561072957fe5b0217905550426003819055507f06b08932edfa95ecf10e18f8e389c58332551bbfe5faf843ed9afb329fd14118426040518080602001838152602001828103825260118152602001807f41756374696f6e2043616e63656c6c65640000000000000000000000000000008152506020019250505060405180910390a16001905090565b60006003544211610808576040517f08c379a000000000000000000000000000000000000000000000000000000000815260040180806020018281038252602d815260200180611082602d913960400191505060405180910390fd5b600560009054906101000a900473ffffffffffffffffffffffffffffffffffffffff1673ffffffffffffffffffffffffffffffffffffffff163373ffffffffffffffffffffffffffffffffffffffff1614156108af576040517f08c379a00000000000000000000000000000000000000000000000000000000081526004018080602001828103825260278152602001806111146027913960400191505060405180910390fd5b6000600960003373ffffffffffffffffffffffffffffffffffffffff1673ffffffffffffffffffffffffffffffffffffffff1681526020019081526020016000205490506000600960003373ffffffffffffffffffffffffffffffffffffffff1673ffffffffffffffffffffffffffffffffffffffff168152602001908152602001600020819055503373ffffffffffffffffffffffffffffffffffffffff166108fc829081150290604051600060405180830381858888f1935050505015801561097e573d6000803e3d6000fd5b507f2f174ca282119315c59efaf21147aef438581dabdeb498198ae28964373dd8bc3382604051808373ffffffffffffffffffffffffffffffffffffffff1673ffffffffffffffffffffffffffffffffffffffff1681526020018281526020019250505060405180910390a1600191505090565b60025481565b6000600960003373ffffffffffffffffffffffffffffffffffffffff1673ffffffffffffffffffffffffffffffffffffffff16815260200190815260200160002054905090565b6000600160009054906101000a900473ffffffffffffffffffffffffffffffffffffffff1673ffffffffffffffffffffffffffffffffffffffff163373ffffffffffffffffffffffffffffffffffffffff1614610a9b57600080fd5b47905090565b60068060000154908060010154905082565b6000600160009054906101000a900473ffffffffffffffffffffffffffffffffffffffff1673ffffffffffffffffffffffffffffffffffffffff163373ffffffffffffffffffffffffffffffffffffffff1614610b0f57600080fd5b6003544211610b69576040517f08c379a00000000000000000000000000000000000000000000000000000000081526004018080602001828103825260398152602001806110db6039913960400191505060405180910390fd5b60008090505b600880549050811015610c095760006009600060088481548110610b8f57fe5b9060005260206000200160009054906101000a900473ffffffffffffffffffffffffffffffffffffffff1673ffffffffffffffffffffffffffffffffffffffff1673ffffffffffffffffffffffffffffffffffffffff1681526020019081526020016000205414610bfc57fe5b8080600101915050610b6f565b506000600160009054906101000a900473ffffffffffffffffffffffffffffffffffffffff1690508073ffffffffffffffffffffffffffffffffffffffff16ff5b6003544211610ca4576040517f08c379a000000000000000000000000000000000000000000000000000000000815260040180806020018281038252602c8152602001806110af602c913960400191505060405180910390fd5b600560009054906101000a900473ffffffffffffffffffffffffffffffffffffffff1673ffffffffffffffffffffffffffffffffffffffff163373ffffffffffffffffffffffffffffffffffffffff1614610d4a576040517f08c379a000000000000000000000000000000000000000000000000000000000815260040180806020018281038252602381526020018061113b6023913960400191505060405180910390fd5b6000600960003373ffffffffffffffffffffffffffffffffffffffff1673ffffffffffffffffffffffffffffffffffffffff1681526020019081526020016000205490506000600960003373ffffffffffffffffffffffffffffffffffffffff1673ffffffffffffffffffffffffffffffffffffffff168152602001908152602001600020819055506000600160009054906101000a900473ffffffffffffffffffffffffffffffffffffffff1690508073ffffffffffffffffffffffffffffffffffffffff166108fc839081150290604051600060405180830381858888f19350505050158015610e40573d6000803e3d6000fd5b506000809054906101000a900473ffffffffffffffffffffffffffffffffffffffff1673ffffffffffffffffffffffffffffffffffffffff1663f31281d730600160009054906101000a900473ffffffffffffffffffffffffffffffffffffffff16600560009054906101000a900473ffffffffffffffffffffffffffffffffffffffff166006600101546040518563ffffffff1660e01b8152600401808573ffffffffffffffffffffffffffffffffffffffff1673ffffffffffffffffffffffffffffffffffffffff1681526020018473ffffffffffffffffffffffffffffffffffffffff1673ffffffffffffffffffffffffffffffffffffffff1681526020018373ffffffffffffffffffffffffffffffffffffffff1673ffffffffffffffffffffffffffffffffffffffff168152602001828152602001945050505050600060405180830381600087803b158015610f9a57600080fd5b505af1158015610fae573d6000803e3d6000fd5b505050507f8ed7db30df47fbd87811a5e8a95a94838f0c0241263d9a1865d6a2a3e10516e2338284604051808473ffffffffffffffffffffffffffffffffffffffff1673ffffffffffffffffffffffffffffffffffffffff1681526020018373ffffffffffffffffffffffffffffffffffffffff1673ffffffffffffffffffffffffffffffffffffffff168152602001828152602001935050505060405180910390a15050565b60035481565b600a60009054906101000a900460ff1681565b60045481565b600060088054905090509056fe596f752063616e27742077697468647261772c207468652061756374696f6e206973207374696c6c206f70656e596f752063616e277420627579204361722c207468652061756374696f6e206973207374696c6c206f70656e596f752063616e27742064657374727563742074686520636f6e74726163742c5468652061756374696f6e206973207374696c6c206f70656e596f752063616e27742077697468647261772c20596f7520776f6e207468652041756374696f6e4f6e6c7920686967686573744269646465722063616e20627579207468652063617264a265627a7a72315820463f0ec6b7a829e74c1f5471f5468c1c17af55d30c9bc980dbf221e212edd76364736f6c634300051000324f6e6c7920436f6e74726163742043616e20446f20746865205472616e73666572a265627a7a723158207ecc69f7db92ca6cb0647c47d10c8ae4908a4ad58b62b35f9c6b72932522e72664736f6c63430005100032",
  "source": "pragma solidity >=0.5.0 <0.6.0;\n\nimport \"./cardbank.sol\";\nimport \"./ownable.sol\";\n\ncontract Store is Cardbank{\n    \n    uint nonce = 0;\n    uint tokenid = 0;\n    uint packCost = 1 ether;\n    \n    \n    uint[40] pack1 =    [89631139,45231177,32274490,46986414,91152256,4614116,77007920,63102017,11868825,86318356,\n                        83887306,4206964,50045299,40374923,40374923,90963488,34460851,36121917,2863439,37313348,\n                        75356564,15401633,57305373,40826495,39004808,18710707,22910685,44287299,85705804,59197169,\n                        46130346,24094653,72842870,74677422,76211194,72302403,10202894,54652250,7089711,55444629];\n                        \n    uint[40] pack2 =    [77585513,90908427,49587034,1248895,98299011,34694160,60866277,22359980,16227556,43711255,\n                        79106360,42599677,31477025,4266839,30655537,3134241,78193831,6104968,67049542,66927994,\n                        24294108,51345461,24128274,27125110,84620194,10992251,21015833,79870141,32269855,4042268,\n                        31447217,23615409,5265750,83994646,22959079,93108433,23171610,2311603,98139712,31477025];\n                        \n    uint[40] pack3 =    [69140098,3573512,46821314,31709826,31987274,67371383,87303357,86281779,12953226,21888494,\n                        57882509,29549364,82432018,19827717,18605135,21598948,94163677,5494820,33550694,69954399,\n                        95220856,65475294,28358902,90147755,53530069,22419772,58818411,21297224,58696829,84080939,\n                        57579381,32541773,67105242,66989694,41855169,40133511,77527210,40916023,45894482,44072894];\n                        \n    uint[40] pack4 =    [65403020,39674352,66073051,2468169,65957473,91345518,63012333,90407382,31812496,53890795,\n                        25773409,52768103,84550200,87340664,50823978,83228073,55001420,18590133,18378582,53776525,\n                        44762290,98045062,17655904,80161395,10035717,56433456,82828051,45311864,82705573,18190572,\n                        44595286,71983925,44472639,70861343,79649195,26566878,52550973,51838385,51616747,50593156];\n    \n    //Purchase the desired pack indicated by the _packNumber argument. Ether is sent to the contract itself. \n    function purchasePack(uint _packNumber) external payable{\n        require(msg.value == packCost);\n        require(_packNumber > 0 && _packNumber < 5);\n        \n        if (_packNumber == 1){\n            unpackCards(pack1);\n        }\n        else if (_packNumber == 2){\n            unpackCards(pack2);\n        }\n        else if (_packNumber == 3){\n            unpackCards(pack3);\n        }\n        else{\n            unpackCards(pack4);\n        }\n        \n    }\n    \n    \n    //Generates 5 pseudorandom numbers used to index into an array of cards\n    function pickFiveRandom() internal returns(uint[5] memory){\n         \n         uint[5] memory randomNums;\n         \n         for(uint i = 0; i < 5; i++){\n             uint random = uint(keccak256(abi.encodePacked(now, msg.sender, nonce))) % 39;\n             randomNums[i] = random;\n             nonce++;\n         }\n         return randomNums;\n    }\n    \n    \n    \n    //Uses the pseudorandom numbers to select 5 cards from pack and add them to cardbank\n    function unpackCards(uint[40] memory pack) internal{\n        \n        uint[5] memory randomNums = pickFiveRandom();\n        \n        for (uint i = 0; i < 5; i++){\n            uint cardid = pack[randomNums[i]];\n            _createNewCard(tokenid, cardid);\n            tokenid++;\n        }\n    }\n\n    function changePackCost(uint _newPrice) external onlyOwner{\n        packCost = _newPrice;\n    }\n    \n    \n    function getContractBalance() external view onlyOwner returns(uint){\n        return address(this).balance;\n        \n    }\n}",
  "sourcePath": "/Users/mohitsingh/Documents/COLORADO STATE UNIVERSITY/Block Chain/BlockChain Project/trial/contracts/store.sol",
  "compiler": {
    "name": "solc",
    "version": "0.5.16+commit.9c3226ce.Emscripten.clang"
  },
  "schemaVersion": "3.0.23",
  "updatedAt": "2020-05-03T02:36:12.558Z",
  "networkType": "ethereum",
  "devdoc": {
    "methods": {
      "isOwner()": {
        "return": "true if `msg.sender` is the owner of the contract."
      },
      "owner()": {
        "return": "the address of the owner."
      },
      "renounceOwnership()": {
        "details": "Allows the current owner to relinquish control of the contract."
      },
      "transferOwnership(address)": {
        "details": "Allows the current owner to transfer control of the contract to a newOwner.",
        "params": {
          "newOwner": "The address to transfer ownership to."
        }
      }
    }
  },
  "userdoc": {
    "methods": {
      "renounceOwnership()": {
        "notice": "Renouncing to ownership will leave the contract without an owner. It will not be possible to call the functions with the `onlyOwner` modifier anymore."
      }
    }
  }
}