{
  "contractName": "ZombieFeeding",
  "abi": [
    {
      "anonymous": false,
      "inputs": [
        {
          "indexed": false,
          "internalType": "uint256",
          "name": "zombieId",
          "type": "uint256"
        },
        {
          "indexed": false,
          "internalType": "string",
          "name": "name",
          "type": "string"
        },
        {
          "indexed": false,
          "internalType": "uint256",
          "name": "dna",
          "type": "uint256"
        }
      ],
      "name": "NewZombie",
      "type": "event"
    },
    {
      "anonymous": false,
      "inputs": [
        {
          "indexed": true,
          "internalType": "address",
          "name": "previousOwner",
          "type": "address"
        },
        {
          "indexed": true,
          "internalType": "address",
          "name": "newOwner",
          "type": "address"
        }
      ],
      "name": "OwnershipTransferred",
      "type": "event"
    },
    {
      "constant": false,
      "inputs": [
        {
          "internalType": "string",
          "name": "_name",
          "type": "string"
        }
      ],
      "name": "createRandomZombie",
      "outputs": [],
      "payable": false,
      "stateMutability": "nonpayable",
      "type": "function"
    },
    {
      "constant": true,
      "inputs": [],
      "name": "isOwner",
      "outputs": [
        {
          "internalType": "bool",
          "name": "",
          "type": "bool"
        }
      ],
      "payable": false,
      "stateMutability": "view",
      "type": "function"
    },
    {
      "constant": true,
      "inputs": [],
      "name": "owner",
      "outputs": [
        {
          "internalType": "address",
          "name": "",
          "type": "address"
        }
      ],
      "payable": false,
      "stateMutability": "view",
      "type": "function"
    },
    {
      "constant": false,
      "inputs": [],
      "name": "renounceOwnership",
      "outputs": [],
      "payable": false,
      "stateMutability": "nonpayable",
      "type": "function"
    },
    {
      "constant": false,
      "inputs": [
        {
          "internalType": "address",
          "name": "newOwner",
          "type": "address"
        }
      ],
      "name": "transferOwnership",
      "outputs": [],
      "payable": false,
      "stateMutability": "nonpayable",
      "type": "function"
    },
    {
      "constant": true,
      "inputs": [
        {
          "internalType": "uint256",
          "name": "",
          "type": "uint256"
        }
      ],
      "name": "zombieToOwner",
      "outputs": [
        {
          "internalType": "address",
          "name": "",
          "type": "address"
        }
      ],
      "payable": false,
      "stateMutability": "view",
      "type": "function"
    },
    {
      "constant": true,
      "inputs": [
        {
          "internalType": "uint256",
          "name": "",
          "type": "uint256"
        }
      ],
      "name": "zombies",
      "outputs": [
        {
          "internalType": "string",
          "name": "name",
          "type": "string"
        },
        {
          "internalType": "uint256",
          "name": "dna",
          "type": "uint256"
        },
        {
          "internalType": "uint32",
          "name": "level",
          "type": "uint32"
        },
        {
          "internalType": "uint32",
          "name": "readyTime",
          "type": "uint32"
        },
        {
          "internalType": "uint16",
          "name": "winCount",
          "type": "uint16"
        },
        {
          "internalType": "uint16",
          "name": "lossCount",
          "type": "uint16"
        }
      ],
      "payable": false,
      "stateMutability": "view",
      "type": "function"
    },
    {
      "constant": false,
      "inputs": [
        {
          "internalType": "address",
          "name": "_address",
          "type": "address"
        }
      ],
      "name": "setKittyContractAddress",
      "outputs": [],
      "payable": false,
      "stateMutability": "nonpayable",
      "type": "function"
    },
    {
      "constant": false,
      "inputs": [
        {
          "internalType": "uint256",
          "name": "_zombieId",
          "type": "uint256"
        },
        {
          "internalType": "uint256",
          "name": "_kittyId",
          "type": "uint256"
        }
      ],
      "name": "feedOnKitty",
      "outputs": [],
      "payable": false,
      "stateMutability": "nonpayable",
      "type": "function"
    }
  ],
  "bytecode": "0x60806040526010600155600154600a0a60025561012c600355336000806101000a81548173ffffffffffffffffffffffffffffffffffffffff021916908373ffffffffffffffffffffffffffffffffffffffff1602179055506000809054906101000a900473ffffffffffffffffffffffffffffffffffffffff1673ffffffffffffffffffffffffffffffffffffffff16600073ffffffffffffffffffffffffffffffffffffffff167f8be0079c531659141344cd1fd0a4f28419497f9722a3daafe3b4186f6b6457e060405160405180910390a3610f65806100e36000396000f3fe608060405234801561001057600080fd5b50600436106100935760003560e01c8063715018a611610066578063715018a6146102745780637bff0a011461027e5780638da5cb5b146103395780638f32d59b14610383578063f2fde38b146103a557610093565b806317a7f4cc146100985780632052465e146100d0578063528b7b8f146101c25780635f4623f114610230575b600080fd5b6100ce600480360360408110156100ae57600080fd5b8101908080359060200190929190803590602001909291905050506103e9565b005b6100fc600480360360208110156100e657600080fd5b810190808035906020019092919050505061045c565b60405180806020018781526020018663ffffffff1663ffffffff1681526020018563ffffffff1663ffffffff1681526020018461ffff1661ffff1681526020018361ffff1661ffff168152602001828103825288818151815260200191508051906020019080838360005b83811015610182578082015181840152602081019050610167565b50505050905090810190601f1680156101af5780820380516001836020036101000a031916815260200191505b5097505050505050505060405180910390f35b6101ee600480360360208110156101d857600080fd5b8101908080359060200190929190505050610579565b604051808273ffffffffffffffffffffffffffffffffffffffff1673ffffffffffffffffffffffffffffffffffffffff16815260200191505060405180910390f35b6102726004803603602081101561024657600080fd5b81019080803573ffffffffffffffffffffffffffffffffffffffff1690602001909291905050506105ac565b005b61027c610601565b005b6103376004803603602081101561029457600080fd5b81019080803590602001906401000000008111156102b157600080fd5b8201836020820111156102c357600080fd5b803590602001918460018302840111640100000000831117156102e557600080fd5b91908080601f016020809104026020016040519081016040528093929190818152602001838380828437600081840152601f19601f8201169050808301925050505050505091929192905050506106d1565b005b610341610747565b604051808273ffffffffffffffffffffffffffffffffffffffff1673ffffffffffffffffffffffffffffffffffffffff16815260200191505060405180910390f35b61038b610770565b604051808215151515815260200191505060405180910390f35b6103e7600480360360208110156103bb57600080fd5b81019080803573ffffffffffffffffffffffffffffffffffffffff1690602001909291905050506107c7565b005b600081604051602001808281526020019150506040516020818303038152906040528051906020012060001c905061045783826040518060400160405280600581526020017f6b697474790000000000000000000000000000000000000000000000000000008152506107e4565b505050565b6004818154811061046957fe5b9060005260206000209060030201600091509050806000018054600181600116156101000203166002900480601f0160208091040260200160405190810160405280929190818152602001828054600181600116156101000203166002900480156105155780601f106104ea57610100808354040283529160200191610515565b820191906000526020600020905b8154815290600101906020018083116104f857829003601f168201915b5050505050908060010154908060020160009054906101000a900463ffffffff16908060020160049054906101000a900463ffffffff16908060020160089054906101000a900461ffff169080600201600a9054906101000a900461ffff16905086565b60056020528060005260406000206000915054906101000a900473ffffffffffffffffffffffffffffffffffffffff1681565b6105b4610770565b6105bd57600080fd5b80600760006101000a81548173ffffffffffffffffffffffffffffffffffffffff021916908373ffffffffffffffffffffffffffffffffffffffff16021790555050565b610609610770565b61061257600080fd5b600073ffffffffffffffffffffffffffffffffffffffff166000809054906101000a900473ffffffffffffffffffffffffffffffffffffffff1673ffffffffffffffffffffffffffffffffffffffff167f8be0079c531659141344cd1fd0a4f28419497f9722a3daafe3b4186f6b6457e060405160405180910390a360008060006101000a81548173ffffffffffffffffffffffffffffffffffffffff021916908373ffffffffffffffffffffffffffffffffffffffff160217905550565b6000600660003373ffffffffffffffffffffffffffffffffffffffff1673ffffffffffffffffffffffffffffffffffffffff168152602001908152602001600020541461071d57600080fd5b6000610728826109c6565b90506064818161073457fe5b06810390506107438282610a54565b5050565b60008060009054906101000a900473ffffffffffffffffffffffffffffffffffffffff16905090565b60008060009054906101000a900473ffffffffffffffffffffffffffffffffffffffff1673ffffffffffffffffffffffffffffffffffffffff163373ffffffffffffffffffffffffffffffffffffffff1614905090565b6107cf610770565b6107d857600080fd5b6107e181610d26565b50565b826005600082815260200190815260200160002060009054906101000a900473ffffffffffffffffffffffffffffffffffffffff1673ffffffffffffffffffffffffffffffffffffffff163373ffffffffffffffffffffffffffffffffffffffff161461085057600080fd5b60006004858154811061085f57fe5b9060005260206000209060030201905061087881610e1e565b61088157600080fd5b600254848161088c57fe5b0693506000600285836001015401816108a157fe5b04905060405160200180807f6b69747479000000000000000000000000000000000000000000000000000000815250600501905060405160208183030381529060405280519060200120846040516020018082805190602001908083835b6020831061092257805182526020820191506020810190506020830392506108ff565b6001836020036101000a0380198251168184511680821785525050505050509050019150506040516020818303038152906040528051906020012014156109765760636064828161096f57fe5b0682030190505b6109b56040518060400160405280600681526020017f4e6f4e616d65000000000000000000000000000000000000000000000000000081525082610a54565b6109be82610e45565b505050505050565b600080826040516020018082805190602001908083835b60208310610a0057805182526020820191506020810190506020830392506109dd565b6001836020036101000a0380198251168184511680821785525050505050509050019150506040516020818303038152906040528051906020012060001c90506002548181610a4b57fe5b06915050919050565b6000600160046040518060c00160405280868152602001858152602001600163ffffffff168152602001600354420163ffffffff168152602001600061ffff168152602001600061ffff16815250908060018154018082558091505090600182039060005260206000209060030201600090919290919091506000820151816000019080519060200190610ae9929190610e8b565b506020820151816001015560408201518160020160006101000a81548163ffffffff021916908363ffffffff16021790555060608201518160020160046101000a81548163ffffffff021916908363ffffffff16021790555060808201518160020160086101000a81548161ffff021916908361ffff16021790555060a082015181600201600a6101000a81548161ffff021916908361ffff1602179055505050039050336005600083815260200190815260200160002060006101000a81548173ffffffffffffffffffffffffffffffffffffffff021916908373ffffffffffffffffffffffffffffffffffffffff160217905550610c326001600660003373ffffffffffffffffffffffffffffffffffffffff1673ffffffffffffffffffffffffffffffffffffffff16815260200190815260200160002054610e6f90919063ffffffff16565b600660003373ffffffffffffffffffffffffffffffffffffffff1673ffffffffffffffffffffffffffffffffffffffff168152602001908152602001600020819055507f88f026aacbbecc90c18411df4b1185fd8d9be2470f1962f192bf84a27d0704b78184846040518084815260200180602001838152602001828103825284818151815260200191508051906020019080838360005b83811015610ce5578082015181840152602081019050610cca565b50505050905090810190601f168015610d125780820380516001836020036101000a031916815260200191505b5094505050505060405180910390a1505050565b600073ffffffffffffffffffffffffffffffffffffffff168173ffffffffffffffffffffffffffffffffffffffff161415610d6057600080fd5b8073ffffffffffffffffffffffffffffffffffffffff166000809054906101000a900473ffffffffffffffffffffffffffffffffffffffff1673ffffffffffffffffffffffffffffffffffffffff167f8be0079c531659141344cd1fd0a4f28419497f9722a3daafe3b4186f6b6457e060405160405180910390a3806000806101000a81548173ffffffffffffffffffffffffffffffffffffffff021916908373ffffffffffffffffffffffffffffffffffffffff16021790555050565b6000428260020160049054906101000a900463ffffffff1663ffffffff1611159050919050565b60035442018160020160046101000a81548163ffffffff021916908363ffffffff16021790555050565b600080828401905083811015610e8157fe5b8091505092915050565b828054600181600116156101000203166002900490600052602060002090601f016020900481019282601f10610ecc57805160ff1916838001178555610efa565b82800160010185558215610efa579182015b82811115610ef9578251825591602001919060010190610ede565b5b509050610f079190610f0b565b5090565b610f2d91905b80821115610f29576000816000905550600101610f11565b5090565b9056fea265627a7a72315820dacbefa857e40b96f62298e0c901125b2d88f5f8e8d5340717861ef696f279b664736f6c63430005100032",
  "source": "pragma solidity >=0.5.0 <0.6.0;\n\nimport \"./zombiefactory.sol\";\n\ncontract KittyInterface {\n    function getKitty(uint256 _id) external view returns (\n        bool isGestating,\n        bool isReady,\n        uint256 cooldownIndex,\n        uint256 nextActionAt,\n        uint256 siringWithId,\n        uint256 birthTime,\n        uint256 matronId,\n        uint256 sireId,\n        uint256 generation,\n        uint256 genes\n    );\n}\n\ncontract ZombieFeeding is ZombieFactory {\n\n    KittyInterface kittyContract;\n\n    modifier onlyOwnerOf(uint _zombieId) {\n        require(msg.sender == zombieToOwner[_zombieId]);\n        _;\n    }\n\n    function setKittyContractAddress(address _address) external onlyOwner {\n        kittyContract = KittyInterface(_address);\n    }\n\n    function _triggerCooldown(Zombie storage _zombie) internal {\n        _zombie.readyTime = uint32(now + cooldownTime);\n    }\n\n    function _isReady(Zombie storage _zombie) internal view returns (bool) {\n        return (_zombie.readyTime <= now);\n    }\n\n    function feedAndMultiply(uint _zombieId, uint _targetDna, string memory _species) internal onlyOwnerOf(_zombieId) {\n        Zombie storage myZombie = zombies[_zombieId];\n        require(_isReady(myZombie));\n        _targetDna = _targetDna % dnaModulus;\n        uint newDna = (myZombie.dna + _targetDna) / 2;\n        if (keccak256(abi.encodePacked(_species)) == keccak256(abi.encodePacked(\"kitty\"))) {\n            newDna = newDna - newDna % 100 + 99;\n        }\n        _createZombie(\"NoName\", newDna);\n        _triggerCooldown(myZombie);\n    }\n\n    function feedOnKitty(uint _zombieId, uint _kittyId) public {\n        //  temporary kluge to use random DNA because can't call MAINNET from RINKEBY\n        uint kittyDna;\n        //(,,,,,,,,,kittyDna) = kittyContract.getKitty(_kittyId);  // the real code\n        kittyDna = uint(keccak256(abi.encodePacked(_kittyId))); // the kluge\n        feedAndMultiply(_zombieId, kittyDna, \"kitty\");\n    }\n}\n",
  "sourcePath": "/Users/jgersch/CSU Classes/CS481A3 2020_Spring/Projects/CryptoZombies/contracts/zombiefeeding.sol",
  "compiler": {
    "name": "solc",
    "version": "0.5.16+commit.9c3226ce.Emscripten.clang"
  },
  "schemaVersion": "3.0.23",
  "updatedAt": "2020-02-22T22:01:05.955Z",
  "devdoc": {
    "methods": {
      "isOwner()": {
        "return": "true if `msg.sender` is the owner of the contract."
      },
      "owner()": {
        "return": "the address of the owner."
      },
      "renounceOwnership()": {
        "details": "Allows the current owner to relinquish control of the contract."
      },
      "transferOwnership(address)": {
        "details": "Allows the current owner to transfer control of the contract to a newOwner.",
        "params": {
          "newOwner": "The address to transfer ownership to."
        }
      }
    }
  },
  "userdoc": {
    "methods": {
      "renounceOwnership()": {
        "notice": "Renouncing to ownership will leave the contract without an owner. It will not be possible to call the functions with the `onlyOwner` modifier anymore."
      }
    }
  }
}